{
  "_format": "hh-sol-artifact-1",
  "contractName": "BlankHoodie",
  "sourceName": "contracts/BlankHoodie.sol",
  "abi": [
    {
      "inputs": [],
      "stateMutability": "nonpayable",
      "type": "constructor"
    },
    {
      "inputs": [],
      "name": "ApprovalCallerNotOwnerNorApproved",
      "type": "error"
    },
    {
      "inputs": [],
      "name": "ApprovalQueryForNonexistentToken",
      "type": "error"
    },
    {
      "inputs": [],
      "name": "ApprovalToCurrentOwner",
      "type": "error"
    },
    {
      "inputs": [],
      "name": "ApproveToCaller",
      "type": "error"
    },
    {
      "inputs": [],
      "name": "BalanceQueryForZeroAddress",
      "type": "error"
    },
    {
      "inputs": [],
      "name": "MintToZeroAddress",
      "type": "error"
    },
    {
      "inputs": [],
      "name": "MintZeroQuantity",
      "type": "error"
    },
    {
      "inputs": [],
      "name": "OwnerQueryForNonexistentToken",
      "type": "error"
    },
    {
      "inputs": [],
      "name": "TransferCallerNotOwnerNorApproved",
      "type": "error"
    },
    {
      "inputs": [],
      "name": "TransferFromIncorrectOwner",
      "type": "error"
    },
    {
      "inputs": [],
      "name": "TransferToNonERC721ReceiverImplementer",
      "type": "error"
    },
    {
      "inputs": [],
      "name": "TransferToZeroAddress",
      "type": "error"
    },
    {
      "anonymous": false,
      "inputs": [
        {
          "indexed": true,
          "internalType": "address",
          "name": "owner",
          "type": "address"
        },
        {
          "indexed": true,
          "internalType": "address",
          "name": "approved",
          "type": "address"
        },
        {
          "indexed": true,
          "internalType": "uint256",
          "name": "tokenId",
          "type": "uint256"
        }
      ],
      "name": "Approval",
      "type": "event"
    },
    {
      "anonymous": false,
      "inputs": [
        {
          "indexed": true,
          "internalType": "address",
          "name": "owner",
          "type": "address"
        },
        {
          "indexed": true,
          "internalType": "address",
          "name": "operator",
          "type": "address"
        },
        {
          "indexed": false,
          "internalType": "bool",
          "name": "approved",
          "type": "bool"
        }
      ],
      "name": "ApprovalForAll",
      "type": "event"
    },
    {
      "anonymous": false,
      "inputs": [
        {
          "indexed": true,
          "internalType": "address",
          "name": "previousOwner",
          "type": "address"
        },
        {
          "indexed": true,
          "internalType": "address",
          "name": "newOwner",
          "type": "address"
        }
      ],
      "name": "OwnershipTransferred",
      "type": "event"
    },
    {
      "anonymous": false,
      "inputs": [
        {
          "indexed": true,
          "internalType": "address",
          "name": "from",
          "type": "address"
        },
        {
          "indexed": true,
          "internalType": "address",
          "name": "to",
          "type": "address"
        },
        {
          "indexed": true,
          "internalType": "uint256",
          "name": "tokenId",
          "type": "uint256"
        }
      ],
      "name": "Transfer",
      "type": "event"
    },
    {
      "inputs": [
        {
          "internalType": "address",
          "name": "_to",
          "type": "address"
        },
        {
          "internalType": "uint256",
          "name": "_amount",
          "type": "uint256"
        }
      ],
      "name": "airDrop",
      "outputs": [],
      "stateMutability": "nonpayable",
      "type": "function"
    },
    {
      "inputs": [
        {
          "internalType": "address",
          "name": "to",
          "type": "address"
        },
        {
          "internalType": "uint256",
          "name": "tokenId",
          "type": "uint256"
        }
      ],
      "name": "approve",
      "outputs": [],
      "stateMutability": "nonpayable",
      "type": "function"
    },
    {
      "inputs": [
        {
          "internalType": "address",
          "name": "owner",
          "type": "address"
        }
      ],
      "name": "balanceOf",
      "outputs": [
        {
          "internalType": "uint256",
          "name": "",
          "type": "uint256"
        }
      ],
      "stateMutability": "view",
      "type": "function"
    },
    {
      "inputs": [],
      "name": "baseURI",
      "outputs": [
        {
          "internalType": "string",
          "name": "",
          "type": "string"
        }
      ],
      "stateMutability": "view",
      "type": "function"
    },
    {
      "inputs": [],
      "name": "cost",
      "outputs": [
        {
          "internalType": "uint256",
          "name": "",
          "type": "uint256"
        }
      ],
      "stateMutability": "view",
      "type": "function"
    },
    {
      "inputs": [
        {
          "internalType": "uint256",
          "name": "tokenId",
          "type": "uint256"
        }
      ],
      "name": "getApproved",
      "outputs": [
        {
          "internalType": "address",
          "name": "",
          "type": "address"
        }
      ],
      "stateMutability": "view",
      "type": "function"
    },
    {
      "inputs": [
        {
          "internalType": "address",
          "name": "owner",
          "type": "address"
        },
        {
          "internalType": "address",
          "name": "operator",
          "type": "address"
        }
      ],
      "name": "isApprovedForAll",
      "outputs": [
        {
          "internalType": "bool",
          "name": "",
          "type": "bool"
        }
      ],
      "stateMutability": "view",
      "type": "function"
    },
    {
      "inputs": [],
      "name": "maxSupply",
      "outputs": [
        {
          "internalType": "uint256",
          "name": "",
          "type": "uint256"
        }
      ],
      "stateMutability": "view",
      "type": "function"
    },
    {
      "inputs": [
        {
          "internalType": "uint256",
          "name": "_mintAmount",
          "type": "uint256"
        }
      ],
      "name": "mint",
      "outputs": [],
      "stateMutability": "payable",
      "type": "function"
    },
    {
      "inputs": [],
      "name": "name",
      "outputs": [
        {
          "internalType": "string",
          "name": "",
          "type": "string"
        }
      ],
      "stateMutability": "view",
      "type": "function"
    },
    {
      "inputs": [],
      "name": "owner",
      "outputs": [
        {
          "internalType": "address",
          "name": "",
          "type": "address"
        }
      ],
      "stateMutability": "view",
      "type": "function"
    },
    {
      "inputs": [
        {
          "internalType": "uint256",
          "name": "tokenId",
          "type": "uint256"
        }
      ],
      "name": "ownerOf",
      "outputs": [
        {
          "internalType": "address",
          "name": "",
          "type": "address"
        }
      ],
      "stateMutability": "view",
      "type": "function"
    },
    {
      "inputs": [],
      "name": "paused",
      "outputs": [
        {
          "internalType": "bool",
          "name": "",
          "type": "bool"
        }
      ],
      "stateMutability": "view",
      "type": "function"
    },
    {
      "inputs": [],
      "name": "renounceOwnership",
      "outputs": [],
      "stateMutability": "nonpayable",
      "type": "function"
    },
    {
      "inputs": [
        {
          "internalType": "address",
          "name": "from",
          "type": "address"
        },
        {
          "internalType": "address",
          "name": "to",
          "type": "address"
        },
        {
          "internalType": "uint256",
          "name": "tokenId",
          "type": "uint256"
        }
      ],
      "name": "safeTransferFrom",
      "outputs": [],
      "stateMutability": "nonpayable",
      "type": "function"
    },
    {
      "inputs": [
        {
          "internalType": "address",
          "name": "from",
          "type": "address"
        },
        {
          "internalType": "address",
          "name": "to",
          "type": "address"
        },
        {
          "internalType": "uint256",
          "name": "tokenId",
          "type": "uint256"
        },
        {
          "internalType": "bytes",
          "name": "_data",
          "type": "bytes"
        }
      ],
      "name": "safeTransferFrom",
      "outputs": [],
      "stateMutability": "nonpayable",
      "type": "function"
    },
    {
      "inputs": [
        {
          "internalType": "address",
          "name": "operator",
          "type": "address"
        },
        {
          "internalType": "bool",
          "name": "approved",
          "type": "bool"
        }
      ],
      "name": "setApprovalForAll",
      "outputs": [],
      "stateMutability": "nonpayable",
      "type": "function"
    },
    {
      "inputs": [
        {
          "internalType": "string",
          "name": "_newBaseURI",
          "type": "string"
        }
      ],
      "name": "setBaseURI",
      "outputs": [],
      "stateMutability": "nonpayable",
      "type": "function"
    },
    {
      "inputs": [
        {
          "internalType": "uint256",
          "name": "_price",
          "type": "uint256"
        }
      ],
      "name": "setCost",
      "outputs": [],
      "stateMutability": "nonpayable",
      "type": "function"
    },
    {
      "inputs": [
        {
          "internalType": "bool",
          "name": "_state",
          "type": "bool"
        }
      ],
      "name": "setPaused",
      "outputs": [],
      "stateMutability": "nonpayable",
      "type": "function"
    },
    {
      "inputs": [
        {
          "internalType": "bytes4",
          "name": "interfaceId",
          "type": "bytes4"
        }
      ],
      "name": "supportsInterface",
      "outputs": [
        {
          "internalType": "bool",
          "name": "",
          "type": "bool"
        }
      ],
      "stateMutability": "view",
      "type": "function"
    },
    {
      "inputs": [],
      "name": "symbol",
      "outputs": [
        {
          "internalType": "string",
          "name": "",
          "type": "string"
        }
      ],
      "stateMutability": "view",
      "type": "function"
    },
    {
      "inputs": [
        {
          "internalType": "uint256",
          "name": "_tokenId",
          "type": "uint256"
        }
      ],
      "name": "tokenURI",
      "outputs": [
        {
          "internalType": "string",
          "name": "",
          "type": "string"
        }
      ],
      "stateMutability": "view",
      "type": "function"
    },
    {
      "inputs": [],
      "name": "totalSupply",
      "outputs": [
        {
          "internalType": "uint256",
          "name": "",
          "type": "uint256"
        }
      ],
      "stateMutability": "view",
      "type": "function"
    },
    {
      "inputs": [
        {
          "internalType": "address",
          "name": "from",
          "type": "address"
        },
        {
          "internalType": "address",
          "name": "to",
          "type": "address"
        },
        {
          "internalType": "uint256",
          "name": "tokenId",
          "type": "uint256"
        }
      ],
      "name": "transferFrom",
      "outputs": [],
      "stateMutability": "nonpayable",
      "type": "function"
    },
    {
      "inputs": [
        {
          "internalType": "address",
          "name": "newOwner",
          "type": "address"
        }
      ],
      "name": "transferOwnership",
      "outputs": [],
      "stateMutability": "nonpayable",
      "type": "function"
    },
    {
      "inputs": [],
      "name": "withdraw",
      "outputs": [],
      "stateMutability": "nonpayable",
      "type": "function"
    }
  ],
  "bytecode": "0x60806040526040518060600160405280603581526020016200364c60359139600a90805190602001906200003592919062000207565b5067016345785d8a0000600b556001600c60006101000a81548160ff0219169083151502179055503480156200006a57600080fd5b506040518060400160405280600c81526020017f426c616e6b20486f6f64696500000000000000000000000000000000000000008152506040518060400160405280600681526020017f484f4f44494500000000000000000000000000000000000000000000000000008152508160029080519060200190620000ef92919062000207565b5080600390805190602001906200010892919062000207565b5050506200012b6200011f6200013960201b60201c565b6200014160201b60201c565b60016009819055506200031c565b600033905090565b6000600860009054906101000a900473ffffffffffffffffffffffffffffffffffffffff16905081600860006101000a81548173ffffffffffffffffffffffffffffffffffffffff021916908373ffffffffffffffffffffffffffffffffffffffff1602179055508173ffffffffffffffffffffffffffffffffffffffff168173ffffffffffffffffffffffffffffffffffffffff167f8be0079c531659141344cd1fd0a4f28419497f9722a3daafe3b4186f6b6457e060405160405180910390a35050565b8280546200021590620002e6565b90600052602060002090601f01602090048101928262000239576000855562000285565b82601f106200025457805160ff191683800117855562000285565b8280016001018555821562000285579182015b828111156200028457825182559160200191906001019062000267565b5b50905062000294919062000298565b5090565b5b80821115620002b357600081600090555060010162000299565b5090565b7f4e487b7100000000000000000000000000000000000000000000000000000000600052602260045260246000fd5b60006002820490506001821680620002ff57607f821691505b60208210811415620003165762000315620002b7565b5b50919050565b613320806200032c6000396000f3fe60806040526004361061019c5760003560e01c80635c975abb116100ec578063a0712d681161008a578063c87b56dd11610064578063c87b56dd1461057d578063d5abeb01146105ba578063e985e9c5146105e5578063f2fde38b146106225761019c565b8063a0712d681461050f578063a22cb4651461052b578063b88d4fde146105545761019c565b806370a08231116100c657806370a0823114610465578063715018a6146104a25780638da5cb5b146104b957806395d89b41146104e45761019c565b80635c975abb146103d25780636352211e146103fd5780636c0360eb1461043a5761019c565b806316c38b3c116101595780633ccfd60b116101335780633ccfd60b1461034057806342842e0e1461035757806344a0d68a1461038057806355f804b3146103a95761019c565b806316c38b3c146102c357806318160ddd146102ec57806323b872dd146103175761019c565b806301ffc9a7146101a1578063045f7850146101de57806306fdde0314610207578063081812fc14610232578063095ea7b31461026f57806313faede614610298575b600080fd5b3480156101ad57600080fd5b506101c860048036038101906101c39190612614565b61064b565b6040516101d5919061265c565b60405180910390f35b3480156101ea57600080fd5b506102056004803603810190610200919061270b565b61072d565b005b34801561021357600080fd5b5061021c61082b565b60405161022991906127e4565b60405180910390f35b34801561023e57600080fd5b5061025960048036038101906102549190612806565b6108bd565b6040516102669190612842565b60405180910390f35b34801561027b57600080fd5b506102966004803603810190610291919061270b565b610939565b005b3480156102a457600080fd5b506102ad610a44565b6040516102ba919061286c565b60405180910390f35b3480156102cf57600080fd5b506102ea60048036038101906102e591906128b3565b610a4a565b005b3480156102f857600080fd5b50610301610ae3565b60405161030e919061286c565b60405180910390f35b34801561032357600080fd5b5061033e600480360381019061033991906128e0565b610af1565b005b34801561034c57600080fd5b50610355610b01565b005b34801561036357600080fd5b5061037e600480360381019061037991906128e0565b610c33565b005b34801561038c57600080fd5b506103a760048036038101906103a29190612806565b610c53565b005b3480156103b557600080fd5b506103d060048036038101906103cb9190612a68565b610cd9565b005b3480156103de57600080fd5b506103e7610d6f565b6040516103f4919061265c565b60405180910390f35b34801561040957600080fd5b50610424600480360381019061041f9190612806565b610d82565b6040516104319190612842565b60405180910390f35b34801561044657600080fd5b5061044f610d98565b60405161045c91906127e4565b60405180910390f35b34801561047157600080fd5b5061048c60048036038101906104879190612ab1565b610e26565b604051610499919061286c565b60405180910390f35b3480156104ae57600080fd5b506104b7610ef6565b005b3480156104c557600080fd5b506104ce610f7e565b6040516104db9190612842565b60405180910390f35b3480156104f057600080fd5b506104f9610fa8565b60405161050691906127e4565b60405180910390f35b61052960048036038101906105249190612806565b61103a565b005b34801561053757600080fd5b50610552600480360381019061054d9190612ade565b6111b1565b005b34801561056057600080fd5b5061057b60048036038101906105769190612bbf565b611329565b005b34801561058957600080fd5b506105a4600480360381019061059f9190612806565b61137c565b6040516105b191906127e4565b60405180910390f35b3480156105c657600080fd5b506105cf611419565b6040516105dc919061286c565b60405180910390f35b3480156105f157600080fd5b5061060c60048036038101906106079190612c42565b61141f565b604051610619919061265c565b60405180910390f35b34801561062e57600080fd5b5061064960048036038101906106449190612ab1565b6114b3565b005b60007f80ac58cd000000000000000000000000000000000000000000000000000000007bffffffffffffffffffffffffffffffffffffffffffffffffffffffff1916827bffffffffffffffffffffffffffffffffffffffffffffffffffffffff1916148061071657507f5b5e139f000000000000000000000000000000000000000000000000000000007bffffffffffffffffffffffffffffffffffffffffffffffffffffffff1916827bffffffffffffffffffffffffffffffffffffffffffffffffffffffff1916145b806107265750610725826115ab565b5b9050919050565b610735611615565b73ffffffffffffffffffffffffffffffffffffffff16610753610f7e565b73ffffffffffffffffffffffffffffffffffffffff16146107a9576040517f08c379a00000000000000000000000000000000000000000000000000000000081526004016107a090612cce565b60405180910390fd5b60016101f46107b89190612d1d565b816107c1610ae3565b6107cb9190612d1d565b1061080b576040517f08c379a000000000000000000000000000000000000000000000000000000000815260040161080290612dbf565b60405180910390fd5b610827828260405180602001604052806000815250600161161d565b5050565b60606002805461083a90612e0e565b80601f016020809104026020016040519081016040528092919081815260200182805461086690612e0e565b80156108b35780601f10610888576101008083540402835291602001916108b3565b820191906000526020600020905b81548152906001019060200180831161089657829003601f168201915b5050505050905090565b60006108c882611954565b6108fe576040517fcf4700e400000000000000000000000000000000000000000000000000000000815260040160405180910390fd5b6006600083815260200190815260200160002060009054906101000a900473ffffffffffffffffffffffffffffffffffffffff169050919050565b600061094482610d82565b90508073ffffffffffffffffffffffffffffffffffffffff168373ffffffffffffffffffffffffffffffffffffffff1614156109ac576040517f943f7b8c00000000000000000000000000000000000000000000000000000000815260040160405180910390fd5b8073ffffffffffffffffffffffffffffffffffffffff166109cb611615565b73ffffffffffffffffffffffffffffffffffffffff16141580156109fd57506109fb816109f6611615565b61141f565b155b15610a34576040517fcfb3b94200000000000000000000000000000000000000000000000000000000815260040160405180910390fd5b610a3f83838361198e565b505050565b600b5481565b610a52611615565b73ffffffffffffffffffffffffffffffffffffffff16610a70610f7e565b73ffffffffffffffffffffffffffffffffffffffff1614610ac6576040517f08c379a0000000000000000000000000000000000000000000000000000000008152600401610abd90612cce565b60405180910390fd5b80600c60006101000a81548160ff02191690831515021790555050565b600060015460005403905090565b610afc838383611a40565b505050565b610b09611615565b73ffffffffffffffffffffffffffffffffffffffff16610b27610f7e565b73ffffffffffffffffffffffffffffffffffffffff1614610b7d576040517f08c379a0000000000000000000000000000000000000000000000000000000008152600401610b7490612cce565b60405180910390fd5b6000610b87610f7e565b73ffffffffffffffffffffffffffffffffffffffff1647604051610baa90612e71565b60006040518083038185875af1925050503d8060008114610be7576040519150601f19603f3d011682016040523d82523d6000602084013e610bec565b606091505b5050905080610c30576040517f08c379a0000000000000000000000000000000000000000000000000000000008152600401610c2790612ed2565b60405180910390fd5b50565b610c4e83838360405180602001604052806000815250611329565b505050565b610c5b611615565b73ffffffffffffffffffffffffffffffffffffffff16610c79610f7e565b73ffffffffffffffffffffffffffffffffffffffff1614610ccf576040517f08c379a0000000000000000000000000000000000000000000000000000000008152600401610cc690612cce565b60405180910390fd5b80600b8190555050565b610ce1611615565b73ffffffffffffffffffffffffffffffffffffffff16610cff610f7e565b73ffffffffffffffffffffffffffffffffffffffff1614610d55576040517f08c379a0000000000000000000000000000000000000000000000000000000008152600401610d4c90612cce565b60405180910390fd5b80600a9080519060200190610d6b9291906124c2565b5050565b600c60009054906101000a900460ff1681565b6000610d8d82611f31565b600001519050919050565b600a8054610da590612e0e565b80601f0160208091040260200160405190810160405280929190818152602001828054610dd190612e0e565b8015610e1e5780601f10610df357610100808354040283529160200191610e1e565b820191906000526020600020905b815481529060010190602001808311610e0157829003601f168201915b505050505081565b60008073ffffffffffffffffffffffffffffffffffffffff168273ffffffffffffffffffffffffffffffffffffffff161415610e8e576040517f8f4eb60400000000000000000000000000000000000000000000000000000000815260040160405180910390fd5b600560008373ffffffffffffffffffffffffffffffffffffffff1673ffffffffffffffffffffffffffffffffffffffff16815260200190815260200160002060000160009054906101000a900467ffffffffffffffff1667ffffffffffffffff169050919050565b610efe611615565b73ffffffffffffffffffffffffffffffffffffffff16610f1c610f7e565b73ffffffffffffffffffffffffffffffffffffffff1614610f72576040517f08c379a0000000000000000000000000000000000000000000000000000000008152600401610f6990612cce565b60405180910390fd5b610f7c60006121ad565b565b6000600860009054906101000a900473ffffffffffffffffffffffffffffffffffffffff16905090565b606060038054610fb790612e0e565b80601f0160208091040260200160405190810160405280929190818152602001828054610fe390612e0e565b80156110305780601f1061100557610100808354040283529160200191611030565b820191906000526020600020905b81548152906001019060200180831161101357829003601f168201915b5050505050905090565b60026009541415611080576040517f08c379a000000000000000000000000000000000000000000000000000000000815260040161107790612f3e565b60405180910390fd5b6002600981905550600c60009054906101000a900460ff16156110d8576040517f08c379a00000000000000000000000000000000000000000000000000000000081526004016110cf90612faa565b60405180910390fd5b60016101f46110e79190612d1d565b816110f0610ae3565b6110fa9190612d1d565b1061113a576040517f08c379a000000000000000000000000000000000000000000000000000000000815260040161113190612dbf565b60405180910390fd5b80600b546111489190612fca565b34101561118a576040517f08c379a000000000000000000000000000000000000000000000000000000000815260040161118190613070565b60405180910390fd5b6111a6338260405180602001604052806000815250600161161d565b600160098190555050565b6111b9611615565b73ffffffffffffffffffffffffffffffffffffffff168273ffffffffffffffffffffffffffffffffffffffff16141561121e576040517fb06307db00000000000000000000000000000000000000000000000000000000815260040160405180910390fd5b806007600061122b611615565b73ffffffffffffffffffffffffffffffffffffffff1673ffffffffffffffffffffffffffffffffffffffff16815260200190815260200160002060008473ffffffffffffffffffffffffffffffffffffffff1673ffffffffffffffffffffffffffffffffffffffff16815260200190815260200160002060006101000a81548160ff0219169083151502179055508173ffffffffffffffffffffffffffffffffffffffff166112d8611615565b73ffffffffffffffffffffffffffffffffffffffff167f17307eab39ab6107e8899845ad3d59bd9653f200f220920489ca2b5937696c318360405161131d919061265c565b60405180910390a35050565b611334848484611a40565b61134084848484612273565b611376576040517fd1a57ed600000000000000000000000000000000000000000000000000000000815260040160405180910390fd5b50505050565b606061138782611954565b6113c6576040517f08c379a00000000000000000000000000000000000000000000000000000000081526004016113bd90613102565b60405180910390fd5b60006113d0612401565b905060008151116113f05760405180602001604052806000815250611411565b80604051602001611401919061315e565b6040516020818303038152906040525b915050919050565b6101f481565b6000600760008473ffffffffffffffffffffffffffffffffffffffff1673ffffffffffffffffffffffffffffffffffffffff16815260200190815260200160002060008373ffffffffffffffffffffffffffffffffffffffff1673ffffffffffffffffffffffffffffffffffffffff16815260200190815260200160002060009054906101000a900460ff16905092915050565b6114bb611615565b73ffffffffffffffffffffffffffffffffffffffff166114d9610f7e565b73ffffffffffffffffffffffffffffffffffffffff161461152f576040517f08c379a000000000000000000000000000000000000000000000000000000000815260040161152690612cce565b60405180910390fd5b600073ffffffffffffffffffffffffffffffffffffffff168173ffffffffffffffffffffffffffffffffffffffff16141561159f576040517f08c379a0000000000000000000000000000000000000000000000000000000008152600401611596906131e7565b60405180910390fd5b6115a8816121ad565b50565b60007f01ffc9a7000000000000000000000000000000000000000000000000000000007bffffffffffffffffffffffffffffffffffffffffffffffffffffffff1916827bffffffffffffffffffffffffffffffffffffffffffffffffffffffff1916149050919050565b600033905090565b600080549050600073ffffffffffffffffffffffffffffffffffffffff168573ffffffffffffffffffffffffffffffffffffffff16141561168a576040517f2e07630000000000000000000000000000000000000000000000000000000000815260040160405180910390fd5b60008414156116c5576040517fb562e8dd00000000000000000000000000000000000000000000000000000000815260040160405180910390fd5b6116d26000868387612493565b83600560008773ffffffffffffffffffffffffffffffffffffffff1673ffffffffffffffffffffffffffffffffffffffff16815260200190815260200160002060000160008282829054906101000a900467ffffffffffffffff160192506101000a81548167ffffffffffffffff021916908367ffffffffffffffff16021790555083600560008773ffffffffffffffffffffffffffffffffffffffff1673ffffffffffffffffffffffffffffffffffffffff16815260200190815260200160002060000160088282829054906101000a900467ffffffffffffffff160192506101000a81548167ffffffffffffffff021916908367ffffffffffffffff160217905550846004600083815260200190815260200160002060000160006101000a81548173ffffffffffffffffffffffffffffffffffffffff021916908373ffffffffffffffffffffffffffffffffffffffff160217905550426004600083815260200190815260200160002060000160146101000a81548167ffffffffffffffff021916908367ffffffffffffffff160217905550600081905060005b8581101561193757818773ffffffffffffffffffffffffffffffffffffffff16600073ffffffffffffffffffffffffffffffffffffffff167fddf252ad1be2c89b69c2b068fc378daa952ba7f163c4a11628f55a4df523b3ef60405160405180910390a48380156118eb57506118e96000888488612273565b155b15611922576040517fd1a57ed600000000000000000000000000000000000000000000000000000000815260040160405180910390fd5b81806001019250508080600101915050611870565b50806000819055505061194d6000868387612499565b5050505050565b6000805482108015611987575060046000838152602001908152602001600020600001601c9054906101000a900460ff16155b9050919050565b826006600084815260200190815260200160002060006101000a81548173ffffffffffffffffffffffffffffffffffffffff021916908373ffffffffffffffffffffffffffffffffffffffff160217905550818373ffffffffffffffffffffffffffffffffffffffff168273ffffffffffffffffffffffffffffffffffffffff167f8c5be1e5ebec7d5bd14f71427d1e84f3dd0314c0f7b2291e5b200ac8c7c3b92560405160405180910390a4505050565b6000611a4b82611f31565b90506000816000015173ffffffffffffffffffffffffffffffffffffffff16611a72611615565b73ffffffffffffffffffffffffffffffffffffffff161480611aa55750611aa48260000151611a9f611615565b61141f565b5b80611aea5750611ab3611615565b73ffffffffffffffffffffffffffffffffffffffff16611ad2846108bd565b73ffffffffffffffffffffffffffffffffffffffff16145b905080611b23576040517f59c896be00000000000000000000000000000000000000000000000000000000815260040160405180910390fd5b8473ffffffffffffffffffffffffffffffffffffffff16826000015173ffffffffffffffffffffffffffffffffffffffff1614611b8c576040517fa114810000000000000000000000000000000000000000000000000000000000815260040160405180910390fd5b600073ffffffffffffffffffffffffffffffffffffffff168473ffffffffffffffffffffffffffffffffffffffff161415611bf3576040517fea553b3400000000000000000000000000000000000000000000000000000000815260040160405180910390fd5b611c008585856001612493565b611c10600084846000015161198e565b6001600560008773ffffffffffffffffffffffffffffffffffffffff1673ffffffffffffffffffffffffffffffffffffffff16815260200190815260200160002060000160008282829054906101000a900467ffffffffffffffff160392506101000a81548167ffffffffffffffff021916908367ffffffffffffffff1602179055506001600560008673ffffffffffffffffffffffffffffffffffffffff1673ffffffffffffffffffffffffffffffffffffffff16815260200190815260200160002060000160008282829054906101000a900467ffffffffffffffff160192506101000a81548167ffffffffffffffff021916908367ffffffffffffffff160217905550836004600085815260200190815260200160002060000160006101000a81548173ffffffffffffffffffffffffffffffffffffffff021916908373ffffffffffffffffffffffffffffffffffffffff160217905550426004600085815260200190815260200160002060000160146101000a81548167ffffffffffffffff021916908367ffffffffffffffff1602179055506000600184019050600073ffffffffffffffffffffffffffffffffffffffff166004600083815260200190815260200160002060000160009054906101000a900473ffffffffffffffffffffffffffffffffffffffff1673ffffffffffffffffffffffffffffffffffffffff161415611ec157600054811015611ec05782600001516004600083815260200190815260200160002060000160006101000a81548173ffffffffffffffffffffffffffffffffffffffff021916908373ffffffffffffffffffffffffffffffffffffffff16021790555082602001516004600083815260200190815260200160002060000160146101000a81548167ffffffffffffffff021916908367ffffffffffffffff1602179055505b5b50828473ffffffffffffffffffffffffffffffffffffffff168673ffffffffffffffffffffffffffffffffffffffff167fddf252ad1be2c89b69c2b068fc378daa952ba7f163c4a11628f55a4df523b3ef60405160405180910390a4611f2a8585856001612499565b5050505050565b611f39612548565b6000829050600054811015612176576000600460008381526020019081526020016000206040518060600160405290816000820160009054906101000a900473ffffffffffffffffffffffffffffffffffffffff1673ffffffffffffffffffffffffffffffffffffffff1673ffffffffffffffffffffffffffffffffffffffff1681526020016000820160149054906101000a900467ffffffffffffffff1667ffffffffffffffff1667ffffffffffffffff16815260200160008201601c9054906101000a900460ff1615151515815250509050806040015161217457600073ffffffffffffffffffffffffffffffffffffffff16816000015173ffffffffffffffffffffffffffffffffffffffff16146120585780925050506121a8565b5b60011561217357818060019003925050600460008381526020019081526020016000206040518060600160405290816000820160009054906101000a900473ffffffffffffffffffffffffffffffffffffffff1673ffffffffffffffffffffffffffffffffffffffff1673ffffffffffffffffffffffffffffffffffffffff1681526020016000820160149054906101000a900467ffffffffffffffff1667ffffffffffffffff1667ffffffffffffffff16815260200160008201601c9054906101000a900460ff1615151515815250509050600073ffffffffffffffffffffffffffffffffffffffff16816000015173ffffffffffffffffffffffffffffffffffffffff161461216e5780925050506121a8565b612059565b5b505b6040517fdf2d9b4200000000000000000000000000000000000000000000000000000000815260040160405180910390fd5b919050565b6000600860009054906101000a900473ffffffffffffffffffffffffffffffffffffffff16905081600860006101000a81548173ffffffffffffffffffffffffffffffffffffffff021916908373ffffffffffffffffffffffffffffffffffffffff1602179055508173ffffffffffffffffffffffffffffffffffffffff168173ffffffffffffffffffffffffffffffffffffffff167f8be0079c531659141344cd1fd0a4f28419497f9722a3daafe3b4186f6b6457e060405160405180910390a35050565b60006122948473ffffffffffffffffffffffffffffffffffffffff1661249f565b156123f4578373ffffffffffffffffffffffffffffffffffffffff1663150b7a026122bd611615565b8786866040518563ffffffff1660e01b81526004016122df949392919061325c565b602060405180830381600087803b1580156122f957600080fd5b505af192505050801561232a57506040513d601f19601f8201168201806040525081019061232791906132bd565b60015b6123a4573d806000811461235a576040519150601f19603f3d011682016040523d82523d6000602084013e61235f565b606091505b5060008151141561239c576040517fd1a57ed600000000000000000000000000000000000000000000000000000000815260040160405180910390fd5b805181602001fd5b63150b7a0260e01b7bffffffffffffffffffffffffffffffffffffffffffffffffffffffff1916817bffffffffffffffffffffffffffffffffffffffffffffffffffffffff1916149150506123f9565b600190505b949350505050565b6060600a805461241090612e0e565b80601f016020809104026020016040519081016040528092919081815260200182805461243c90612e0e565b80156124895780601f1061245e57610100808354040283529160200191612489565b820191906000526020600020905b81548152906001019060200180831161246c57829003601f168201915b5050505050905090565b50505050565b50505050565b6000808273ffffffffffffffffffffffffffffffffffffffff163b119050919050565b8280546124ce90612e0e565b90600052602060002090601f0160209004810192826124f05760008555612537565b82601f1061250957805160ff1916838001178555612537565b82800160010185558215612537579182015b8281111561253657825182559160200191906001019061251b565b5b509050612544919061258b565b5090565b6040518060600160405280600073ffffffffffffffffffffffffffffffffffffffff168152602001600067ffffffffffffffff1681526020016000151581525090565b5b808211156125a457600081600090555060010161258c565b5090565b6000604051905090565b600080fd5b600080fd5b60007fffffffff0000000000000000000000000000000000000000000000000000000082169050919050565b6125f1816125bc565b81146125fc57600080fd5b50565b60008135905061260e816125e8565b92915050565b60006020828403121561262a576126296125b2565b5b6000612638848285016125ff565b91505092915050565b60008115159050919050565b61265681612641565b82525050565b6000602082019050612671600083018461264d565b92915050565b600073ffffffffffffffffffffffffffffffffffffffff82169050919050565b60006126a282612677565b9050919050565b6126b281612697565b81146126bd57600080fd5b50565b6000813590506126cf816126a9565b92915050565b6000819050919050565b6126e8816126d5565b81146126f357600080fd5b50565b600081359050612705816126df565b92915050565b60008060408385031215612722576127216125b2565b5b6000612730858286016126c0565b9250506020612741858286016126f6565b9150509250929050565b600081519050919050565b600082825260208201905092915050565b60005b8381101561278557808201518184015260208101905061276a565b83811115612794576000848401525b50505050565b6000601f19601f8301169050919050565b60006127b68261274b565b6127c08185612756565b93506127d0818560208601612767565b6127d98161279a565b840191505092915050565b600060208201905081810360008301526127fe81846127ab565b905092915050565b60006020828403121561281c5761281b6125b2565b5b600061282a848285016126f6565b91505092915050565b61283c81612697565b82525050565b60006020820190506128576000830184612833565b92915050565b612866816126d5565b82525050565b6000602082019050612881600083018461285d565b92915050565b61289081612641565b811461289b57600080fd5b50565b6000813590506128ad81612887565b92915050565b6000602082840312156128c9576128c86125b2565b5b60006128d78482850161289e565b91505092915050565b6000806000606084860312156128f9576128f86125b2565b5b6000612907868287016126c0565b9350506020612918868287016126c0565b9250506040612929868287016126f6565b9150509250925092565b600080fd5b600080fd5b7f4e487b7100000000000000000000000000000000000000000000000000000000600052604160045260246000fd5b6129758261279a565b810181811067ffffffffffffffff821117156129945761299361293d565b5b80604052505050565b60006129a76125a8565b90506129b3828261296c565b919050565b600067ffffffffffffffff8211156129d3576129d261293d565b5b6129dc8261279a565b9050602081019050919050565b82818337600083830152505050565b6000612a0b612a06846129b8565b61299d565b905082815260208101848484011115612a2757612a26612938565b5b612a328482856129e9565b509392505050565b600082601f830112612a4f57612a4e612933565b5b8135612a5f8482602086016129f8565b91505092915050565b600060208284031215612a7e57612a7d6125b2565b5b600082013567ffffffffffffffff811115612a9c57612a9b6125b7565b5b612aa884828501612a3a565b91505092915050565b600060208284031215612ac757612ac66125b2565b5b6000612ad5848285016126c0565b91505092915050565b60008060408385031215612af557612af46125b2565b5b6000612b03858286016126c0565b9250506020612b148582860161289e565b9150509250929050565b600067ffffffffffffffff821115612b3957612b3861293d565b5b612b428261279a565b9050602081019050919050565b6000612b62612b5d84612b1e565b61299d565b905082815260208101848484011115612b7e57612b7d612938565b5b612b898482856129e9565b509392505050565b600082601f830112612ba657612ba5612933565b5b8135612bb6848260208601612b4f565b91505092915050565b60008060008060808587031215612bd957612bd86125b2565b5b6000612be7878288016126c0565b9450506020612bf8878288016126c0565b9350506040612c09878288016126f6565b925050606085013567ffffffffffffffff811115612c2a57612c296125b7565b5b612c3687828801612b91565b91505092959194509250565b60008060408385031215612c5957612c586125b2565b5b6000612c67858286016126c0565b9250506020612c78858286016126c0565b9150509250929050565b7f4f776e61626c653a2063616c6c6572206973206e6f7420746865206f776e6572600082015250565b6000612cb8602083612756565b9150612cc382612c82565b602082019050919050565b60006020820190508181036000830152612ce781612cab565b9050919050565b7f4e487b7100000000000000000000000000000000000000000000000000000000600052601160045260246000fd5b6000612d28826126d5565b9150612d33836126d5565b9250827fffffffffffffffffffffffffffffffffffffffffffffffffffffffffffffffff03821115612d6857612d67612cee565b5b828201905092915050565b7f4d617820737570706c7920657863656564656421000000000000000000000000600082015250565b6000612da9601483612756565b9150612db482612d73565b602082019050919050565b60006020820190508181036000830152612dd881612d9c565b9050919050565b7f4e487b7100000000000000000000000000000000000000000000000000000000600052602260045260246000fd5b60006002820490506001821680612e2657607f821691505b60208210811415612e3a57612e39612ddf565b5b50919050565b600081905092915050565b50565b6000612e5b600083612e40565b9150612e6682612e4b565b600082019050919050565b6000612e7c82612e4e565b9150819050919050565b7f5769746864726177206661696c65642100000000000000000000000000000000600082015250565b6000612ebc601083612756565b9150612ec782612e86565b602082019050919050565b60006020820190508181036000830152612eeb81612eaf565b9050919050565b7f5265656e7472616e637947756172643a207265656e7472616e742063616c6c00600082015250565b6000612f28601f83612756565b9150612f3382612ef2565b602082019050919050565b60006020820190508181036000830152612f5781612f1b565b9050919050565b7f436f6e7472616374206973207061757365642100000000000000000000000000600082015250565b6000612f94601383612756565b9150612f9f82612f5e565b602082019050919050565b60006020820190508181036000830152612fc381612f87565b9050919050565b6000612fd5826126d5565b9150612fe0836126d5565b9250817fffffffffffffffffffffffffffffffffffffffffffffffffffffffffffffffff048311821515161561301957613018612cee565b5b828202905092915050565b7f496e73756666696369656e742066756e64732100000000000000000000000000600082015250565b600061305a601383612756565b915061306582613024565b602082019050919050565b600060208201905081810360008301526130898161304d565b9050919050565b7f4552433732314d657461646174613a2055524920717565727920666f72206e6f60008201527f6e6578697374656e7420746f6b656e0000000000000000000000000000000000602082015250565b60006130ec602f83612756565b91506130f782613090565b604082019050919050565b6000602082019050818103600083015261311b816130df565b9050919050565b600081905092915050565b60006131388261274b565b6131428185613122565b9350613152818560208601612767565b80840191505092915050565b600061316a828461312d565b915081905092915050565b7f4f776e61626c653a206e6577206f776e657220697320746865207a65726f206160008201527f6464726573730000000000000000000000000000000000000000000000000000602082015250565b60006131d1602683612756565b91506131dc82613175565b604082019050919050565b60006020820190508181036000830152613200816131c4565b9050919050565b600081519050919050565b600082825260208201905092915050565b600061322e82613207565b6132388185613212565b9350613248818560208601612767565b6132518161279a565b840191505092915050565b60006080820190506132716000830187612833565b61327e6020830186612833565b61328b604083018561285d565b818103606083015261329d8184613223565b905095945050505050565b6000815190506132b7816125e8565b92915050565b6000602082840312156132d3576132d26125b2565b5b60006132e1848285016132a8565b9150509291505056fea26469706673582212203a92903af83b5467093c7cdfff1e1a05751fbf78d4adb77d399f40ce8e8eea9964736f6c63430008090033697066733a2f2f516d56716f645846667055553133474a4465746345325574504c574d42735a756258365a6e685533584457686d4a",
  "linkReferences": {},
  "deployedLinkReferences": {}
}