{
  "_format": "hh-sol-artifact-1",
  "contractName": "BlankHoodie",
  "sourceName": "contracts/BlankHoodie.sol",
  "abi": [
    {
      "inputs": [],
      "stateMutability": "nonpayable",
      "type": "constructor"
    },
    {
      "inputs": [],
      "name": "ApprovalCallerNotOwnerNorApproved",
      "type": "error"
    },
    {
      "inputs": [],
      "name": "ApprovalQueryForNonexistentToken",
      "type": "error"
    },
    {
      "inputs": [],
      "name": "ApprovalToCurrentOwner",
      "type": "error"
    },
    {
      "inputs": [],
      "name": "ApproveToCaller",
      "type": "error"
    },
    {
      "inputs": [],
      "name": "BalanceQueryForZeroAddress",
      "type": "error"
    },
    {
      "inputs": [],
      "name": "MintToZeroAddress",
      "type": "error"
    },
    {
      "inputs": [],
      "name": "MintZeroQuantity",
      "type": "error"
    },
    {
      "inputs": [],
      "name": "OwnerQueryForNonexistentToken",
      "type": "error"
    },
    {
      "inputs": [],
      "name": "TransferCallerNotOwnerNorApproved",
      "type": "error"
    },
    {
      "inputs": [],
      "name": "TransferFromIncorrectOwner",
      "type": "error"
    },
    {
      "inputs": [],
      "name": "TransferToNonERC721ReceiverImplementer",
      "type": "error"
    },
    {
      "inputs": [],
      "name": "TransferToZeroAddress",
      "type": "error"
    },
    {
      "anonymous": false,
      "inputs": [
        {
          "indexed": true,
          "internalType": "address",
          "name": "owner",
          "type": "address"
        },
        {
          "indexed": true,
          "internalType": "address",
          "name": "approved",
          "type": "address"
        },
        {
          "indexed": true,
          "internalType": "uint256",
          "name": "tokenId",
          "type": "uint256"
        }
      ],
      "name": "Approval",
      "type": "event"
    },
    {
      "anonymous": false,
      "inputs": [
        {
          "indexed": true,
          "internalType": "address",
          "name": "owner",
          "type": "address"
        },
        {
          "indexed": true,
          "internalType": "address",
          "name": "operator",
          "type": "address"
        },
        {
          "indexed": false,
          "internalType": "bool",
          "name": "approved",
          "type": "bool"
        }
      ],
      "name": "ApprovalForAll",
      "type": "event"
    },
    {
      "anonymous": false,
      "inputs": [
        {
          "indexed": true,
          "internalType": "address",
          "name": "previousOwner",
          "type": "address"
        },
        {
          "indexed": true,
          "internalType": "address",
          "name": "newOwner",
          "type": "address"
        }
      ],
      "name": "OwnershipTransferred",
      "type": "event"
    },
    {
      "anonymous": false,
      "inputs": [
        {
          "indexed": true,
          "internalType": "address",
          "name": "from",
          "type": "address"
        },
        {
          "indexed": true,
          "internalType": "address",
          "name": "to",
          "type": "address"
        },
        {
          "indexed": true,
          "internalType": "uint256",
          "name": "tokenId",
          "type": "uint256"
        }
      ],
      "name": "Transfer",
      "type": "event"
    },
    {
      "inputs": [
        {
          "internalType": "address",
          "name": "to",
          "type": "address"
        },
        {
          "internalType": "uint256",
          "name": "tokenId",
          "type": "uint256"
        }
      ],
      "name": "approve",
      "outputs": [],
      "stateMutability": "nonpayable",
      "type": "function"
    },
    {
      "inputs": [
        {
          "internalType": "address",
          "name": "owner",
          "type": "address"
        }
      ],
      "name": "balanceOf",
      "outputs": [
        {
          "internalType": "uint256",
          "name": "",
          "type": "uint256"
        }
      ],
      "stateMutability": "view",
      "type": "function"
    },
    {
      "inputs": [],
      "name": "baseURI",
      "outputs": [
        {
          "internalType": "string",
          "name": "",
          "type": "string"
        }
      ],
      "stateMutability": "view",
      "type": "function"
    },
    {
      "inputs": [],
      "name": "cost",
      "outputs": [
        {
          "internalType": "uint256",
          "name": "",
          "type": "uint256"
        }
      ],
      "stateMutability": "view",
      "type": "function"
    },
    {
      "inputs": [
        {
          "internalType": "uint256",
          "name": "tokenId",
          "type": "uint256"
        }
      ],
      "name": "getApproved",
      "outputs": [
        {
          "internalType": "address",
          "name": "",
          "type": "address"
        }
      ],
      "stateMutability": "view",
      "type": "function"
    },
    {
      "inputs": [
        {
          "internalType": "address",
          "name": "owner",
          "type": "address"
        },
        {
          "internalType": "address",
          "name": "operator",
          "type": "address"
        }
      ],
      "name": "isApprovedForAll",
      "outputs": [
        {
          "internalType": "bool",
          "name": "",
          "type": "bool"
        }
      ],
      "stateMutability": "view",
      "type": "function"
    },
    {
      "inputs": [],
      "name": "maxSupply",
      "outputs": [
        {
          "internalType": "uint256",
          "name": "",
          "type": "uint256"
        }
      ],
      "stateMutability": "view",
      "type": "function"
    },
    {
      "inputs": [
        {
          "internalType": "uint256",
          "name": "_mintAmount",
          "type": "uint256"
        }
      ],
      "name": "mint",
      "outputs": [],
      "stateMutability": "payable",
      "type": "function"
    },
    {
      "inputs": [],
      "name": "name",
      "outputs": [
        {
          "internalType": "string",
          "name": "",
          "type": "string"
        }
      ],
      "stateMutability": "view",
      "type": "function"
    },
    {
      "inputs": [],
      "name": "owner",
      "outputs": [
        {
          "internalType": "address",
          "name": "",
          "type": "address"
        }
      ],
      "stateMutability": "view",
      "type": "function"
    },
    {
      "inputs": [
        {
          "internalType": "uint256",
          "name": "tokenId",
          "type": "uint256"
        }
      ],
      "name": "ownerOf",
      "outputs": [
        {
          "internalType": "address",
          "name": "",
          "type": "address"
        }
      ],
      "stateMutability": "view",
      "type": "function"
    },
    {
      "inputs": [],
      "name": "paused",
      "outputs": [
        {
          "internalType": "bool",
          "name": "",
          "type": "bool"
        }
      ],
      "stateMutability": "view",
      "type": "function"
    },
    {
      "inputs": [],
      "name": "renounceOwnership",
      "outputs": [],
      "stateMutability": "nonpayable",
      "type": "function"
    },
    {
      "inputs": [
        {
          "internalType": "address",
          "name": "from",
          "type": "address"
        },
        {
          "internalType": "address",
          "name": "to",
          "type": "address"
        },
        {
          "internalType": "uint256",
          "name": "tokenId",
          "type": "uint256"
        }
      ],
      "name": "safeTransferFrom",
      "outputs": [],
      "stateMutability": "nonpayable",
      "type": "function"
    },
    {
      "inputs": [
        {
          "internalType": "address",
          "name": "from",
          "type": "address"
        },
        {
          "internalType": "address",
          "name": "to",
          "type": "address"
        },
        {
          "internalType": "uint256",
          "name": "tokenId",
          "type": "uint256"
        },
        {
          "internalType": "bytes",
          "name": "_data",
          "type": "bytes"
        }
      ],
      "name": "safeTransferFrom",
      "outputs": [],
      "stateMutability": "nonpayable",
      "type": "function"
    },
    {
      "inputs": [
        {
          "internalType": "address",
          "name": "operator",
          "type": "address"
        },
        {
          "internalType": "bool",
          "name": "approved",
          "type": "bool"
        }
      ],
      "name": "setApprovalForAll",
      "outputs": [],
      "stateMutability": "nonpayable",
      "type": "function"
    },
    {
      "inputs": [
        {
          "internalType": "string",
          "name": "_newBaseURI",
          "type": "string"
        }
      ],
      "name": "setBaseURI",
      "outputs": [],
      "stateMutability": "nonpayable",
      "type": "function"
    },
    {
      "inputs": [
        {
          "internalType": "uint256",
          "name": "_price",
          "type": "uint256"
        }
      ],
      "name": "setCost",
      "outputs": [],
      "stateMutability": "nonpayable",
      "type": "function"
    },
    {
      "inputs": [
        {
          "internalType": "bool",
          "name": "_state",
          "type": "bool"
        }
      ],
      "name": "setPaused",
      "outputs": [],
      "stateMutability": "nonpayable",
      "type": "function"
    },
    {
      "inputs": [
        {
          "internalType": "bytes4",
          "name": "interfaceId",
          "type": "bytes4"
        }
      ],
      "name": "supportsInterface",
      "outputs": [
        {
          "internalType": "bool",
          "name": "",
          "type": "bool"
        }
      ],
      "stateMutability": "view",
      "type": "function"
    },
    {
      "inputs": [],
      "name": "symbol",
      "outputs": [
        {
          "internalType": "string",
          "name": "",
          "type": "string"
        }
      ],
      "stateMutability": "view",
      "type": "function"
    },
    {
      "inputs": [
        {
          "internalType": "uint256",
          "name": "_tokenId",
          "type": "uint256"
        }
      ],
      "name": "tokenURI",
      "outputs": [
        {
          "internalType": "string",
          "name": "",
          "type": "string"
        }
      ],
      "stateMutability": "view",
      "type": "function"
    },
    {
      "inputs": [],
      "name": "totalSupply",
      "outputs": [
        {
          "internalType": "uint256",
          "name": "",
          "type": "uint256"
        }
      ],
      "stateMutability": "view",
      "type": "function"
    },
    {
      "inputs": [
        {
          "internalType": "address",
          "name": "from",
          "type": "address"
        },
        {
          "internalType": "address",
          "name": "to",
          "type": "address"
        },
        {
          "internalType": "uint256",
          "name": "tokenId",
          "type": "uint256"
        }
      ],
      "name": "transferFrom",
      "outputs": [],
      "stateMutability": "nonpayable",
      "type": "function"
    },
    {
      "inputs": [
        {
          "internalType": "address",
          "name": "newOwner",
          "type": "address"
        }
      ],
      "name": "transferOwnership",
      "outputs": [],
      "stateMutability": "nonpayable",
      "type": "function"
    },
    {
      "inputs": [],
      "name": "withdraw",
      "outputs": [],
      "stateMutability": "nonpayable",
      "type": "function"
    }
  ],
  "bytecode": "0x60806040526040518060600160405280603581526020016200348e60359139600a90805190602001906200003592919062000207565b5067016345785d8a0000600b556001600c60006101000a81548160ff0219169083151502179055503480156200006a57600080fd5b506040518060400160405280600c81526020017f426c616e6b20486f6f64696500000000000000000000000000000000000000008152506040518060400160405280600681526020017f484f4f44494500000000000000000000000000000000000000000000000000008152508160029080519060200190620000ef92919062000207565b5080600390805190602001906200010892919062000207565b5050506200012b6200011f6200013960201b60201c565b6200014160201b60201c565b60016009819055506200031c565b600033905090565b6000600860009054906101000a900473ffffffffffffffffffffffffffffffffffffffff16905081600860006101000a81548173ffffffffffffffffffffffffffffffffffffffff021916908373ffffffffffffffffffffffffffffffffffffffff1602179055508173ffffffffffffffffffffffffffffffffffffffff168173ffffffffffffffffffffffffffffffffffffffff167f8be0079c531659141344cd1fd0a4f28419497f9722a3daafe3b4186f6b6457e060405160405180910390a35050565b8280546200021590620002e6565b90600052602060002090601f01602090048101928262000239576000855562000285565b82601f106200025457805160ff191683800117855562000285565b8280016001018555821562000285579182015b828111156200028457825182559160200191906001019062000267565b5b50905062000294919062000298565b5090565b5b80821115620002b357600081600090555060010162000299565b5090565b7f4e487b7100000000000000000000000000000000000000000000000000000000600052602260045260246000fd5b60006002820490506001821680620002ff57607f821691505b60208210811415620003165762000315620002b7565b5b50919050565b613162806200032c6000396000f3fe6080604052600436106101815760003560e01c80636352211e116100d1578063a0712d681161008a578063c87b56dd11610064578063c87b56dd14610539578063d5abeb0114610576578063e985e9c5146105a1578063f2fde38b146105de57610181565b8063a0712d68146104cb578063a22cb465146104e7578063b88d4fde1461051057610181565b80636352211e146103b95780636c0360eb146103f657806370a0823114610421578063715018a61461045e5780638da5cb5b1461047557806395d89b41146104a057610181565b806318160ddd1161013e57806342842e0e1161011857806342842e0e1461031357806344a0d68a1461033c57806355f804b3146103655780635c975abb1461038e57610181565b806318160ddd146102a857806323b872dd146102d35780633ccfd60b146102fc57610181565b806301ffc9a71461018657806306fdde03146101c3578063081812fc146101ee578063095ea7b31461022b57806313faede61461025457806316c38b3c1461027f575b600080fd5b34801561019257600080fd5b506101ad60048036038101906101a89190612456565b610607565b6040516101ba919061249e565b60405180910390f35b3480156101cf57600080fd5b506101d86106e9565b6040516101e59190612552565b60405180910390f35b3480156101fa57600080fd5b50610215600480360381019061021091906125aa565b61077b565b6040516102229190612618565b60405180910390f35b34801561023757600080fd5b50610252600480360381019061024d919061265f565b6107f7565b005b34801561026057600080fd5b50610269610902565b60405161027691906126ae565b60405180910390f35b34801561028b57600080fd5b506102a660048036038101906102a191906126f5565b610908565b005b3480156102b457600080fd5b506102bd6109a1565b6040516102ca91906126ae565b60405180910390f35b3480156102df57600080fd5b506102fa60048036038101906102f59190612722565b6109af565b005b34801561030857600080fd5b506103116109bf565b005b34801561031f57600080fd5b5061033a60048036038101906103359190612722565b610a75565b005b34801561034857600080fd5b50610363600480360381019061035e91906125aa565b610a95565b005b34801561037157600080fd5b5061038c600480360381019061038791906128aa565b610b1b565b005b34801561039a57600080fd5b506103a3610bb1565b6040516103b0919061249e565b60405180910390f35b3480156103c557600080fd5b506103e060048036038101906103db91906125aa565b610bc4565b6040516103ed9190612618565b60405180910390f35b34801561040257600080fd5b5061040b610bda565b6040516104189190612552565b60405180910390f35b34801561042d57600080fd5b50610448600480360381019061044391906128f3565b610c68565b60405161045591906126ae565b60405180910390f35b34801561046a57600080fd5b50610473610d38565b005b34801561048157600080fd5b5061048a610dc0565b6040516104979190612618565b60405180910390f35b3480156104ac57600080fd5b506104b5610dea565b6040516104c29190612552565b60405180910390f35b6104e560048036038101906104e091906125aa565b610e7c565b005b3480156104f357600080fd5b5061050e60048036038101906105099190612920565b610ff3565b005b34801561051c57600080fd5b5061053760048036038101906105329190612a01565b61116b565b005b34801561054557600080fd5b50610560600480360381019061055b91906125aa565b6111be565b60405161056d9190612552565b60405180910390f35b34801561058257600080fd5b5061058b61125b565b60405161059891906126ae565b60405180910390f35b3480156105ad57600080fd5b506105c860048036038101906105c39190612a84565b611261565b6040516105d5919061249e565b60405180910390f35b3480156105ea57600080fd5b50610605600480360381019061060091906128f3565b6112f5565b005b60007f80ac58cd000000000000000000000000000000000000000000000000000000007bffffffffffffffffffffffffffffffffffffffffffffffffffffffff1916827bffffffffffffffffffffffffffffffffffffffffffffffffffffffff191614806106d257507f5b5e139f000000000000000000000000000000000000000000000000000000007bffffffffffffffffffffffffffffffffffffffffffffffffffffffff1916827bffffffffffffffffffffffffffffffffffffffffffffffffffffffff1916145b806106e257506106e1826113ed565b5b9050919050565b6060600280546106f890612af3565b80601f016020809104026020016040519081016040528092919081815260200182805461072490612af3565b80156107715780601f1061074657610100808354040283529160200191610771565b820191906000526020600020905b81548152906001019060200180831161075457829003601f168201915b5050505050905090565b600061078682611457565b6107bc576040517fcf4700e400000000000000000000000000000000000000000000000000000000815260040160405180910390fd5b6006600083815260200190815260200160002060009054906101000a900473ffffffffffffffffffffffffffffffffffffffff169050919050565b600061080282610bc4565b90508073ffffffffffffffffffffffffffffffffffffffff168373ffffffffffffffffffffffffffffffffffffffff16141561086a576040517f943f7b8c00000000000000000000000000000000000000000000000000000000815260040160405180910390fd5b8073ffffffffffffffffffffffffffffffffffffffff16610889611491565b73ffffffffffffffffffffffffffffffffffffffff16141580156108bb57506108b9816108b4611491565b611261565b155b156108f2576040517fcfb3b94200000000000000000000000000000000000000000000000000000000815260040160405180910390fd5b6108fd838383611499565b505050565b600b5481565b610910611491565b73ffffffffffffffffffffffffffffffffffffffff1661092e610dc0565b73ffffffffffffffffffffffffffffffffffffffff1614610984576040517f08c379a000000000000000000000000000000000000000000000000000000000815260040161097b90612b71565b60405180910390fd5b80600c60006101000a81548160ff02191690831515021790555050565b600060015460005403905090565b6109ba83838361154b565b505050565b60006109c9610dc0565b73ffffffffffffffffffffffffffffffffffffffff16476040516109ec90612bc2565b60006040518083038185875af1925050503d8060008114610a29576040519150601f19603f3d011682016040523d82523d6000602084013e610a2e565b606091505b5050905080610a72576040517f08c379a0000000000000000000000000000000000000000000000000000000008152600401610a6990612c23565b60405180910390fd5b50565b610a908383836040518060200160405280600081525061116b565b505050565b610a9d611491565b73ffffffffffffffffffffffffffffffffffffffff16610abb610dc0565b73ffffffffffffffffffffffffffffffffffffffff1614610b11576040517f08c379a0000000000000000000000000000000000000000000000000000000008152600401610b0890612b71565b60405180910390fd5b80600b8190555050565b610b23611491565b73ffffffffffffffffffffffffffffffffffffffff16610b41610dc0565b73ffffffffffffffffffffffffffffffffffffffff1614610b97576040517f08c379a0000000000000000000000000000000000000000000000000000000008152600401610b8e90612b71565b60405180910390fd5b80600a9080519060200190610bad929190612304565b5050565b600c60009054906101000a900460ff1681565b6000610bcf82611a3c565b600001519050919050565b600a8054610be790612af3565b80601f0160208091040260200160405190810160405280929190818152602001828054610c1390612af3565b8015610c605780601f10610c3557610100808354040283529160200191610c60565b820191906000526020600020905b815481529060010190602001808311610c4357829003601f168201915b505050505081565b60008073ffffffffffffffffffffffffffffffffffffffff168273ffffffffffffffffffffffffffffffffffffffff161415610cd0576040517f8f4eb60400000000000000000000000000000000000000000000000000000000815260040160405180910390fd5b600560008373ffffffffffffffffffffffffffffffffffffffff1673ffffffffffffffffffffffffffffffffffffffff16815260200190815260200160002060000160009054906101000a900467ffffffffffffffff1667ffffffffffffffff169050919050565b610d40611491565b73ffffffffffffffffffffffffffffffffffffffff16610d5e610dc0565b73ffffffffffffffffffffffffffffffffffffffff1614610db4576040517f08c379a0000000000000000000000000000000000000000000000000000000008152600401610dab90612b71565b60405180910390fd5b610dbe6000611cb8565b565b6000600860009054906101000a900473ffffffffffffffffffffffffffffffffffffffff16905090565b606060038054610df990612af3565b80601f0160208091040260200160405190810160405280929190818152602001828054610e2590612af3565b8015610e725780601f10610e4757610100808354040283529160200191610e72565b820191906000526020600020905b815481529060010190602001808311610e5557829003601f168201915b5050505050905090565b60026009541415610ec2576040517f08c379a0000000000000000000000000000000000000000000000000000000008152600401610eb990612c8f565b60405180910390fd5b6002600981905550600c60009054906101000a900460ff1615610f1a576040517f08c379a0000000000000000000000000000000000000000000000000000000008152600401610f1190612cfb565b60405180910390fd5b6001611e61610f299190612d4a565b81610f326109a1565b610f3c9190612d4a565b10610f7c576040517f08c379a0000000000000000000000000000000000000000000000000000000008152600401610f7390612dec565b60405180910390fd5b80600b54610f8a9190612e0c565b341015610fcc576040517f08c379a0000000000000000000000000000000000000000000000000000000008152600401610fc390612eb2565b60405180910390fd5b610fe83382604051806020016040528060008152506001611d7e565b600160098190555050565b610ffb611491565b73ffffffffffffffffffffffffffffffffffffffff168273ffffffffffffffffffffffffffffffffffffffff161415611060576040517fb06307db00000000000000000000000000000000000000000000000000000000815260040160405180910390fd5b806007600061106d611491565b73ffffffffffffffffffffffffffffffffffffffff1673ffffffffffffffffffffffffffffffffffffffff16815260200190815260200160002060008473ffffffffffffffffffffffffffffffffffffffff1673ffffffffffffffffffffffffffffffffffffffff16815260200190815260200160002060006101000a81548160ff0219169083151502179055508173ffffffffffffffffffffffffffffffffffffffff1661111a611491565b73ffffffffffffffffffffffffffffffffffffffff167f17307eab39ab6107e8899845ad3d59bd9653f200f220920489ca2b5937696c318360405161115f919061249e565b60405180910390a35050565b61117684848461154b565b611182848484846120b5565b6111b8576040517fd1a57ed600000000000000000000000000000000000000000000000000000000815260040160405180910390fd5b50505050565b60606111c982611457565b611208576040517f08c379a00000000000000000000000000000000000000000000000000000000081526004016111ff90612f44565b60405180910390fd5b6000611212612243565b905060008151116112325760405180602001604052806000815250611253565b806040516020016112439190612fa0565b6040516020818303038152906040525b915050919050565b611e6181565b6000600760008473ffffffffffffffffffffffffffffffffffffffff1673ffffffffffffffffffffffffffffffffffffffff16815260200190815260200160002060008373ffffffffffffffffffffffffffffffffffffffff1673ffffffffffffffffffffffffffffffffffffffff16815260200190815260200160002060009054906101000a900460ff16905092915050565b6112fd611491565b73ffffffffffffffffffffffffffffffffffffffff1661131b610dc0565b73ffffffffffffffffffffffffffffffffffffffff1614611371576040517f08c379a000000000000000000000000000000000000000000000000000000000815260040161136890612b71565b60405180910390fd5b600073ffffffffffffffffffffffffffffffffffffffff168173ffffffffffffffffffffffffffffffffffffffff1614156113e1576040517f08c379a00000000000000000000000000000000000000000000000000000000081526004016113d890613029565b60405180910390fd5b6113ea81611cb8565b50565b60007f01ffc9a7000000000000000000000000000000000000000000000000000000007bffffffffffffffffffffffffffffffffffffffffffffffffffffffff1916827bffffffffffffffffffffffffffffffffffffffffffffffffffffffff1916149050919050565b600080548210801561148a575060046000838152602001908152602001600020600001601c9054906101000a900460ff16155b9050919050565b600033905090565b826006600084815260200190815260200160002060006101000a81548173ffffffffffffffffffffffffffffffffffffffff021916908373ffffffffffffffffffffffffffffffffffffffff160217905550818373ffffffffffffffffffffffffffffffffffffffff168273ffffffffffffffffffffffffffffffffffffffff167f8c5be1e5ebec7d5bd14f71427d1e84f3dd0314c0f7b2291e5b200ac8c7c3b92560405160405180910390a4505050565b600061155682611a3c565b90506000816000015173ffffffffffffffffffffffffffffffffffffffff1661157d611491565b73ffffffffffffffffffffffffffffffffffffffff1614806115b057506115af82600001516115aa611491565b611261565b5b806115f557506115be611491565b73ffffffffffffffffffffffffffffffffffffffff166115dd8461077b565b73ffffffffffffffffffffffffffffffffffffffff16145b90508061162e576040517f59c896be00000000000000000000000000000000000000000000000000000000815260040160405180910390fd5b8473ffffffffffffffffffffffffffffffffffffffff16826000015173ffffffffffffffffffffffffffffffffffffffff1614611697576040517fa114810000000000000000000000000000000000000000000000000000000000815260040160405180910390fd5b600073ffffffffffffffffffffffffffffffffffffffff168473ffffffffffffffffffffffffffffffffffffffff1614156116fe576040517fea553b3400000000000000000000000000000000000000000000000000000000815260040160405180910390fd5b61170b85858560016122d5565b61171b6000848460000151611499565b6001600560008773ffffffffffffffffffffffffffffffffffffffff1673ffffffffffffffffffffffffffffffffffffffff16815260200190815260200160002060000160008282829054906101000a900467ffffffffffffffff160392506101000a81548167ffffffffffffffff021916908367ffffffffffffffff1602179055506001600560008673ffffffffffffffffffffffffffffffffffffffff1673ffffffffffffffffffffffffffffffffffffffff16815260200190815260200160002060000160008282829054906101000a900467ffffffffffffffff160192506101000a81548167ffffffffffffffff021916908367ffffffffffffffff160217905550836004600085815260200190815260200160002060000160006101000a81548173ffffffffffffffffffffffffffffffffffffffff021916908373ffffffffffffffffffffffffffffffffffffffff160217905550426004600085815260200190815260200160002060000160146101000a81548167ffffffffffffffff021916908367ffffffffffffffff1602179055506000600184019050600073ffffffffffffffffffffffffffffffffffffffff166004600083815260200190815260200160002060000160009054906101000a900473ffffffffffffffffffffffffffffffffffffffff1673ffffffffffffffffffffffffffffffffffffffff1614156119cc576000548110156119cb5782600001516004600083815260200190815260200160002060000160006101000a81548173ffffffffffffffffffffffffffffffffffffffff021916908373ffffffffffffffffffffffffffffffffffffffff16021790555082602001516004600083815260200190815260200160002060000160146101000a81548167ffffffffffffffff021916908367ffffffffffffffff1602179055505b5b50828473ffffffffffffffffffffffffffffffffffffffff168673ffffffffffffffffffffffffffffffffffffffff167fddf252ad1be2c89b69c2b068fc378daa952ba7f163c4a11628f55a4df523b3ef60405160405180910390a4611a3585858560016122db565b5050505050565b611a4461238a565b6000829050600054811015611c81576000600460008381526020019081526020016000206040518060600160405290816000820160009054906101000a900473ffffffffffffffffffffffffffffffffffffffff1673ffffffffffffffffffffffffffffffffffffffff1673ffffffffffffffffffffffffffffffffffffffff1681526020016000820160149054906101000a900467ffffffffffffffff1667ffffffffffffffff1667ffffffffffffffff16815260200160008201601c9054906101000a900460ff16151515158152505090508060400151611c7f57600073ffffffffffffffffffffffffffffffffffffffff16816000015173ffffffffffffffffffffffffffffffffffffffff1614611b63578092505050611cb3565b5b600115611c7e57818060019003925050600460008381526020019081526020016000206040518060600160405290816000820160009054906101000a900473ffffffffffffffffffffffffffffffffffffffff1673ffffffffffffffffffffffffffffffffffffffff1673ffffffffffffffffffffffffffffffffffffffff1681526020016000820160149054906101000a900467ffffffffffffffff1667ffffffffffffffff1667ffffffffffffffff16815260200160008201601c9054906101000a900460ff1615151515815250509050600073ffffffffffffffffffffffffffffffffffffffff16816000015173ffffffffffffffffffffffffffffffffffffffff1614611c79578092505050611cb3565b611b64565b5b505b6040517fdf2d9b4200000000000000000000000000000000000000000000000000000000815260040160405180910390fd5b919050565b6000600860009054906101000a900473ffffffffffffffffffffffffffffffffffffffff16905081600860006101000a81548173ffffffffffffffffffffffffffffffffffffffff021916908373ffffffffffffffffffffffffffffffffffffffff1602179055508173ffffffffffffffffffffffffffffffffffffffff168173ffffffffffffffffffffffffffffffffffffffff167f8be0079c531659141344cd1fd0a4f28419497f9722a3daafe3b4186f6b6457e060405160405180910390a35050565b600080549050600073ffffffffffffffffffffffffffffffffffffffff168573ffffffffffffffffffffffffffffffffffffffff161415611deb576040517f2e07630000000000000000000000000000000000000000000000000000000000815260040160405180910390fd5b6000841415611e26576040517fb562e8dd00000000000000000000000000000000000000000000000000000000815260040160405180910390fd5b611e3360008683876122d5565b83600560008773ffffffffffffffffffffffffffffffffffffffff1673ffffffffffffffffffffffffffffffffffffffff16815260200190815260200160002060000160008282829054906101000a900467ffffffffffffffff160192506101000a81548167ffffffffffffffff021916908367ffffffffffffffff16021790555083600560008773ffffffffffffffffffffffffffffffffffffffff1673ffffffffffffffffffffffffffffffffffffffff16815260200190815260200160002060000160088282829054906101000a900467ffffffffffffffff160192506101000a81548167ffffffffffffffff021916908367ffffffffffffffff160217905550846004600083815260200190815260200160002060000160006101000a81548173ffffffffffffffffffffffffffffffffffffffff021916908373ffffffffffffffffffffffffffffffffffffffff160217905550426004600083815260200190815260200160002060000160146101000a81548167ffffffffffffffff021916908367ffffffffffffffff160217905550600081905060005b8581101561209857818773ffffffffffffffffffffffffffffffffffffffff16600073ffffffffffffffffffffffffffffffffffffffff167fddf252ad1be2c89b69c2b068fc378daa952ba7f163c4a11628f55a4df523b3ef60405160405180910390a483801561204c575061204a60008884886120b5565b155b15612083576040517fd1a57ed600000000000000000000000000000000000000000000000000000000815260040160405180910390fd5b81806001019250508080600101915050611fd1565b5080600081905550506120ae60008683876122db565b5050505050565b60006120d68473ffffffffffffffffffffffffffffffffffffffff166122e1565b15612236578373ffffffffffffffffffffffffffffffffffffffff1663150b7a026120ff611491565b8786866040518563ffffffff1660e01b8152600401612121949392919061309e565b602060405180830381600087803b15801561213b57600080fd5b505af192505050801561216c57506040513d601f19601f8201168201806040525081019061216991906130ff565b60015b6121e6573d806000811461219c576040519150601f19603f3d011682016040523d82523d6000602084013e6121a1565b606091505b506000815114156121de576040517fd1a57ed600000000000000000000000000000000000000000000000000000000815260040160405180910390fd5b805181602001fd5b63150b7a0260e01b7bffffffffffffffffffffffffffffffffffffffffffffffffffffffff1916817bffffffffffffffffffffffffffffffffffffffffffffffffffffffff19161491505061223b565b600190505b949350505050565b6060600a805461225290612af3565b80601f016020809104026020016040519081016040528092919081815260200182805461227e90612af3565b80156122cb5780601f106122a0576101008083540402835291602001916122cb565b820191906000526020600020905b8154815290600101906020018083116122ae57829003601f168201915b5050505050905090565b50505050565b50505050565b6000808273ffffffffffffffffffffffffffffffffffffffff163b119050919050565b82805461231090612af3565b90600052602060002090601f0160209004810192826123325760008555612379565b82601f1061234b57805160ff1916838001178555612379565b82800160010185558215612379579182015b8281111561237857825182559160200191906001019061235d565b5b50905061238691906123cd565b5090565b6040518060600160405280600073ffffffffffffffffffffffffffffffffffffffff168152602001600067ffffffffffffffff1681526020016000151581525090565b5b808211156123e65760008160009055506001016123ce565b5090565b6000604051905090565b600080fd5b600080fd5b60007fffffffff0000000000000000000000000000000000000000000000000000000082169050919050565b612433816123fe565b811461243e57600080fd5b50565b6000813590506124508161242a565b92915050565b60006020828403121561246c5761246b6123f4565b5b600061247a84828501612441565b91505092915050565b60008115159050919050565b61249881612483565b82525050565b60006020820190506124b3600083018461248f565b92915050565b600081519050919050565b600082825260208201905092915050565b60005b838110156124f35780820151818401526020810190506124d8565b83811115612502576000848401525b50505050565b6000601f19601f8301169050919050565b6000612524826124b9565b61252e81856124c4565b935061253e8185602086016124d5565b61254781612508565b840191505092915050565b6000602082019050818103600083015261256c8184612519565b905092915050565b6000819050919050565b61258781612574565b811461259257600080fd5b50565b6000813590506125a48161257e565b92915050565b6000602082840312156125c0576125bf6123f4565b5b60006125ce84828501612595565b91505092915050565b600073ffffffffffffffffffffffffffffffffffffffff82169050919050565b6000612602826125d7565b9050919050565b612612816125f7565b82525050565b600060208201905061262d6000830184612609565b92915050565b61263c816125f7565b811461264757600080fd5b50565b60008135905061265981612633565b92915050565b60008060408385031215612676576126756123f4565b5b60006126848582860161264a565b925050602061269585828601612595565b9150509250929050565b6126a881612574565b82525050565b60006020820190506126c3600083018461269f565b92915050565b6126d281612483565b81146126dd57600080fd5b50565b6000813590506126ef816126c9565b92915050565b60006020828403121561270b5761270a6123f4565b5b6000612719848285016126e0565b91505092915050565b60008060006060848603121561273b5761273a6123f4565b5b60006127498682870161264a565b935050602061275a8682870161264a565b925050604061276b86828701612595565b9150509250925092565b600080fd5b600080fd5b7f4e487b7100000000000000000000000000000000000000000000000000000000600052604160045260246000fd5b6127b782612508565b810181811067ffffffffffffffff821117156127d6576127d561277f565b5b80604052505050565b60006127e96123ea565b90506127f582826127ae565b919050565b600067ffffffffffffffff8211156128155761281461277f565b5b61281e82612508565b9050602081019050919050565b82818337600083830152505050565b600061284d612848846127fa565b6127df565b9050828152602081018484840111156128695761286861277a565b5b61287484828561282b565b509392505050565b600082601f83011261289157612890612775565b5b81356128a184826020860161283a565b91505092915050565b6000602082840312156128c0576128bf6123f4565b5b600082013567ffffffffffffffff8111156128de576128dd6123f9565b5b6128ea8482850161287c565b91505092915050565b600060208284031215612909576129086123f4565b5b60006129178482850161264a565b91505092915050565b60008060408385031215612937576129366123f4565b5b60006129458582860161264a565b9250506020612956858286016126e0565b9150509250929050565b600067ffffffffffffffff82111561297b5761297a61277f565b5b61298482612508565b9050602081019050919050565b60006129a461299f84612960565b6127df565b9050828152602081018484840111156129c0576129bf61277a565b5b6129cb84828561282b565b509392505050565b600082601f8301126129e8576129e7612775565b5b81356129f8848260208601612991565b91505092915050565b60008060008060808587031215612a1b57612a1a6123f4565b5b6000612a298782880161264a565b9450506020612a3a8782880161264a565b9350506040612a4b87828801612595565b925050606085013567ffffffffffffffff811115612a6c57612a6b6123f9565b5b612a78878288016129d3565b91505092959194509250565b60008060408385031215612a9b57612a9a6123f4565b5b6000612aa98582860161264a565b9250506020612aba8582860161264a565b9150509250929050565b7f4e487b7100000000000000000000000000000000000000000000000000000000600052602260045260246000fd5b60006002820490506001821680612b0b57607f821691505b60208210811415612b1f57612b1e612ac4565b5b50919050565b7f4f776e61626c653a2063616c6c6572206973206e6f7420746865206f776e6572600082015250565b6000612b5b6020836124c4565b9150612b6682612b25565b602082019050919050565b60006020820190508181036000830152612b8a81612b4e565b9050919050565b600081905092915050565b50565b6000612bac600083612b91565b9150612bb782612b9c565b600082019050919050565b6000612bcd82612b9f565b9150819050919050565b7f5769746864726177206661696c65642100000000000000000000000000000000600082015250565b6000612c0d6010836124c4565b9150612c1882612bd7565b602082019050919050565b60006020820190508181036000830152612c3c81612c00565b9050919050565b7f5265656e7472616e637947756172643a207265656e7472616e742063616c6c00600082015250565b6000612c79601f836124c4565b9150612c8482612c43565b602082019050919050565b60006020820190508181036000830152612ca881612c6c565b9050919050565b7f436f6e7472616374206973207061757365642100000000000000000000000000600082015250565b6000612ce56013836124c4565b9150612cf082612caf565b602082019050919050565b60006020820190508181036000830152612d1481612cd8565b9050919050565b7f4e487b7100000000000000000000000000000000000000000000000000000000600052601160045260246000fd5b6000612d5582612574565b9150612d6083612574565b9250827fffffffffffffffffffffffffffffffffffffffffffffffffffffffffffffffff03821115612d9557612d94612d1b565b5b828201905092915050565b7f4d617820737570706c7920657863656564656421000000000000000000000000600082015250565b6000612dd66014836124c4565b9150612de182612da0565b602082019050919050565b60006020820190508181036000830152612e0581612dc9565b9050919050565b6000612e1782612574565b9150612e2283612574565b9250817fffffffffffffffffffffffffffffffffffffffffffffffffffffffffffffffff0483118215151615612e5b57612e5a612d1b565b5b828202905092915050565b7f496e73756666696369656e742066756e64732100000000000000000000000000600082015250565b6000612e9c6013836124c4565b9150612ea782612e66565b602082019050919050565b60006020820190508181036000830152612ecb81612e8f565b9050919050565b7f4552433732314d657461646174613a2055524920717565727920666f72206e6f60008201527f6e6578697374656e7420746f6b656e0000000000000000000000000000000000602082015250565b6000612f2e602f836124c4565b9150612f3982612ed2565b604082019050919050565b60006020820190508181036000830152612f5d81612f21565b9050919050565b600081905092915050565b6000612f7a826124b9565b612f848185612f64565b9350612f948185602086016124d5565b80840191505092915050565b6000612fac8284612f6f565b915081905092915050565b7f4f776e61626c653a206e6577206f776e657220697320746865207a65726f206160008201527f6464726573730000000000000000000000000000000000000000000000000000602082015250565b60006130136026836124c4565b915061301e82612fb7565b604082019050919050565b6000602082019050818103600083015261304281613006565b9050919050565b600081519050919050565b600082825260208201905092915050565b600061307082613049565b61307a8185613054565b935061308a8185602086016124d5565b61309381612508565b840191505092915050565b60006080820190506130b36000830187612609565b6130c06020830186612609565b6130cd604083018561269f565b81810360608301526130df8184613065565b905095945050505050565b6000815190506130f98161242a565b92915050565b600060208284031215613115576131146123f4565b5b6000613123848285016130ea565b9150509291505056fea26469706673582212207361e8ca628294f924489fa8ad5aee68d48dfea3c95b51ef6f099f76f20111bc64736f6c63430008090033697066733a2f2f516d56716f645846667055553133474a4465746345325574504c574d42735a756258365a6e685533584457686d4a",
  "linkReferences": {},
  "deployedLinkReferences": {}
}