{
  "_format": "hh-sol-artifact-1",
  "contractName": "BlankHoodie",
  "sourceName": "contracts/BlankHoodie.sol",
  "abi": [
    {
      "inputs": [],
      "stateMutability": "nonpayable",
      "type": "constructor"
    },
    {
      "inputs": [],
      "name": "ApprovalCallerNotOwnerNorApproved",
      "type": "error"
    },
    {
      "inputs": [],
      "name": "ApprovalQueryForNonexistentToken",
      "type": "error"
    },
    {
      "inputs": [],
      "name": "ApprovalToCurrentOwner",
      "type": "error"
    },
    {
      "inputs": [],
      "name": "ApproveToCaller",
      "type": "error"
    },
    {
      "inputs": [],
      "name": "BalanceQueryForZeroAddress",
      "type": "error"
    },
    {
      "inputs": [],
      "name": "MintToZeroAddress",
      "type": "error"
    },
    {
      "inputs": [],
      "name": "MintZeroQuantity",
      "type": "error"
    },
    {
      "inputs": [],
      "name": "OwnerQueryForNonexistentToken",
      "type": "error"
    },
    {
      "inputs": [],
      "name": "TransferCallerNotOwnerNorApproved",
      "type": "error"
    },
    {
      "inputs": [],
      "name": "TransferFromIncorrectOwner",
      "type": "error"
    },
    {
      "inputs": [],
      "name": "TransferToNonERC721ReceiverImplementer",
      "type": "error"
    },
    {
      "inputs": [],
      "name": "TransferToZeroAddress",
      "type": "error"
    },
    {
      "anonymous": false,
      "inputs": [
        {
          "indexed": true,
          "internalType": "address",
          "name": "owner",
          "type": "address"
        },
        {
          "indexed": true,
          "internalType": "address",
          "name": "approved",
          "type": "address"
        },
        {
          "indexed": true,
          "internalType": "uint256",
          "name": "tokenId",
          "type": "uint256"
        }
      ],
      "name": "Approval",
      "type": "event"
    },
    {
      "anonymous": false,
      "inputs": [
        {
          "indexed": true,
          "internalType": "address",
          "name": "owner",
          "type": "address"
        },
        {
          "indexed": true,
          "internalType": "address",
          "name": "operator",
          "type": "address"
        },
        {
          "indexed": false,
          "internalType": "bool",
          "name": "approved",
          "type": "bool"
        }
      ],
      "name": "ApprovalForAll",
      "type": "event"
    },
    {
      "anonymous": false,
      "inputs": [
        {
          "indexed": true,
          "internalType": "address",
          "name": "previousOwner",
          "type": "address"
        },
        {
          "indexed": true,
          "internalType": "address",
          "name": "newOwner",
          "type": "address"
        }
      ],
      "name": "OwnershipTransferred",
      "type": "event"
    },
    {
      "anonymous": false,
      "inputs": [
        {
          "indexed": true,
          "internalType": "address",
          "name": "from",
          "type": "address"
        },
        {
          "indexed": true,
          "internalType": "address",
          "name": "to",
          "type": "address"
        },
        {
          "indexed": true,
          "internalType": "uint256",
          "name": "tokenId",
          "type": "uint256"
        }
      ],
      "name": "Transfer",
      "type": "event"
    },
    {
      "inputs": [
        {
          "internalType": "address",
          "name": "to",
          "type": "address"
        },
        {
          "internalType": "uint256",
          "name": "tokenId",
          "type": "uint256"
        }
      ],
      "name": "approve",
      "outputs": [],
      "stateMutability": "nonpayable",
      "type": "function"
    },
    {
      "inputs": [
        {
          "internalType": "address",
          "name": "owner",
          "type": "address"
        }
      ],
      "name": "balanceOf",
      "outputs": [
        {
          "internalType": "uint256",
          "name": "",
          "type": "uint256"
        }
      ],
      "stateMutability": "view",
      "type": "function"
    },
    {
      "inputs": [],
      "name": "baseURI",
      "outputs": [
        {
          "internalType": "string",
          "name": "",
          "type": "string"
        }
      ],
      "stateMutability": "view",
      "type": "function"
    },
    {
      "inputs": [],
      "name": "cost",
      "outputs": [
        {
          "internalType": "uint256",
          "name": "",
          "type": "uint256"
        }
      ],
      "stateMutability": "view",
      "type": "function"
    },
    {
      "inputs": [
        {
          "internalType": "uint256",
          "name": "tokenId",
          "type": "uint256"
        }
      ],
      "name": "getApproved",
      "outputs": [
        {
          "internalType": "address",
          "name": "",
          "type": "address"
        }
      ],
      "stateMutability": "view",
      "type": "function"
    },
    {
      "inputs": [
        {
          "internalType": "address",
          "name": "owner",
          "type": "address"
        },
        {
          "internalType": "address",
          "name": "operator",
          "type": "address"
        }
      ],
      "name": "isApprovedForAll",
      "outputs": [
        {
          "internalType": "bool",
          "name": "",
          "type": "bool"
        }
      ],
      "stateMutability": "view",
      "type": "function"
    },
    {
      "inputs": [],
      "name": "maxSupply",
      "outputs": [
        {
          "internalType": "uint256",
          "name": "",
          "type": "uint256"
        }
      ],
      "stateMutability": "view",
      "type": "function"
    },
    {
      "inputs": [
        {
          "internalType": "uint256",
          "name": "_mintAmount",
          "type": "uint256"
        }
      ],
      "name": "mint",
      "outputs": [],
      "stateMutability": "payable",
      "type": "function"
    },
    {
      "inputs": [],
      "name": "name",
      "outputs": [
        {
          "internalType": "string",
          "name": "",
          "type": "string"
        }
      ],
      "stateMutability": "view",
      "type": "function"
    },
    {
      "inputs": [],
      "name": "owner",
      "outputs": [
        {
          "internalType": "address",
          "name": "",
          "type": "address"
        }
      ],
      "stateMutability": "view",
      "type": "function"
    },
    {
      "inputs": [
        {
          "internalType": "uint256",
          "name": "tokenId",
          "type": "uint256"
        }
      ],
      "name": "ownerOf",
      "outputs": [
        {
          "internalType": "address",
          "name": "",
          "type": "address"
        }
      ],
      "stateMutability": "view",
      "type": "function"
    },
    {
      "inputs": [],
      "name": "paused",
      "outputs": [
        {
          "internalType": "bool",
          "name": "",
          "type": "bool"
        }
      ],
      "stateMutability": "view",
      "type": "function"
    },
    {
      "inputs": [],
      "name": "renounceOwnership",
      "outputs": [],
      "stateMutability": "nonpayable",
      "type": "function"
    },
    {
      "inputs": [
        {
          "internalType": "address",
          "name": "from",
          "type": "address"
        },
        {
          "internalType": "address",
          "name": "to",
          "type": "address"
        },
        {
          "internalType": "uint256",
          "name": "tokenId",
          "type": "uint256"
        }
      ],
      "name": "safeTransferFrom",
      "outputs": [],
      "stateMutability": "nonpayable",
      "type": "function"
    },
    {
      "inputs": [
        {
          "internalType": "address",
          "name": "from",
          "type": "address"
        },
        {
          "internalType": "address",
          "name": "to",
          "type": "address"
        },
        {
          "internalType": "uint256",
          "name": "tokenId",
          "type": "uint256"
        },
        {
          "internalType": "bytes",
          "name": "_data",
          "type": "bytes"
        }
      ],
      "name": "safeTransferFrom",
      "outputs": [],
      "stateMutability": "nonpayable",
      "type": "function"
    },
    {
      "inputs": [
        {
          "internalType": "address",
          "name": "operator",
          "type": "address"
        },
        {
          "internalType": "bool",
          "name": "approved",
          "type": "bool"
        }
      ],
      "name": "setApprovalForAll",
      "outputs": [],
      "stateMutability": "nonpayable",
      "type": "function"
    },
    {
      "inputs": [
        {
          "internalType": "string",
          "name": "_newBaseURI",
          "type": "string"
        }
      ],
      "name": "setBaseURI",
      "outputs": [],
      "stateMutability": "nonpayable",
      "type": "function"
    },
    {
      "inputs": [
        {
          "internalType": "uint256",
          "name": "_price",
          "type": "uint256"
        }
      ],
      "name": "setCost",
      "outputs": [],
      "stateMutability": "nonpayable",
      "type": "function"
    },
    {
      "inputs": [
        {
          "internalType": "bool",
          "name": "_state",
          "type": "bool"
        }
      ],
      "name": "setPaused",
      "outputs": [],
      "stateMutability": "nonpayable",
      "type": "function"
    },
    {
      "inputs": [
        {
          "internalType": "bytes4",
          "name": "interfaceId",
          "type": "bytes4"
        }
      ],
      "name": "supportsInterface",
      "outputs": [
        {
          "internalType": "bool",
          "name": "",
          "type": "bool"
        }
      ],
      "stateMutability": "view",
      "type": "function"
    },
    {
      "inputs": [],
      "name": "symbol",
      "outputs": [
        {
          "internalType": "string",
          "name": "",
          "type": "string"
        }
      ],
      "stateMutability": "view",
      "type": "function"
    },
    {
      "inputs": [
        {
          "internalType": "uint256",
          "name": "_tokenId",
          "type": "uint256"
        }
      ],
      "name": "tokenURI",
      "outputs": [
        {
          "internalType": "string",
          "name": "",
          "type": "string"
        }
      ],
      "stateMutability": "view",
      "type": "function"
    },
    {
      "inputs": [],
      "name": "totalSupply",
      "outputs": [
        {
          "internalType": "uint256",
          "name": "",
          "type": "uint256"
        }
      ],
      "stateMutability": "view",
      "type": "function"
    },
    {
      "inputs": [
        {
          "internalType": "address",
          "name": "from",
          "type": "address"
        },
        {
          "internalType": "address",
          "name": "to",
          "type": "address"
        },
        {
          "internalType": "uint256",
          "name": "tokenId",
          "type": "uint256"
        }
      ],
      "name": "transferFrom",
      "outputs": [],
      "stateMutability": "nonpayable",
      "type": "function"
    },
    {
      "inputs": [
        {
          "internalType": "address",
          "name": "newOwner",
          "type": "address"
        }
      ],
      "name": "transferOwnership",
      "outputs": [],
      "stateMutability": "nonpayable",
      "type": "function"
    },
    {
      "inputs": [],
      "name": "withdraw",
      "outputs": [],
      "stateMutability": "nonpayable",
      "type": "function"
    }
  ],
  "bytecode": "0x6080604052670de0b6b3a7640000600b556001600c60006101000a81548160ff0219169083151502179055503480156200003857600080fd5b506040518060400160405280600c81526020017f426c616e6b20486f6f64696500000000000000000000000000000000000000008152506040518060400160405280600681526020017f484f4f44494500000000000000000000000000000000000000000000000000008152508160029080519060200190620000bd929190620001d5565b508060039080519060200190620000d6929190620001d5565b505050620000f9620000ed6200010760201b60201c565b6200010f60201b60201c565b6001600981905550620002ea565b600033905090565b6000600860009054906101000a900473ffffffffffffffffffffffffffffffffffffffff16905081600860006101000a81548173ffffffffffffffffffffffffffffffffffffffff021916908373ffffffffffffffffffffffffffffffffffffffff1602179055508173ffffffffffffffffffffffffffffffffffffffff168173ffffffffffffffffffffffffffffffffffffffff167f8be0079c531659141344cd1fd0a4f28419497f9722a3daafe3b4186f6b6457e060405160405180910390a35050565b828054620001e390620002b4565b90600052602060002090601f01602090048101928262000207576000855562000253565b82601f106200022257805160ff191683800117855562000253565b8280016001018555821562000253579182015b828111156200025257825182559160200191906001019062000235565b5b50905062000262919062000266565b5090565b5b808211156200028157600081600090555060010162000267565b5090565b7f4e487b7100000000000000000000000000000000000000000000000000000000600052602260045260246000fd5b60006002820490506001821680620002cd57607f821691505b60208210811415620002e457620002e362000285565b5b50919050565b61346e80620002fa6000396000f3fe6080604052600436106101815760003560e01c80636352211e116100d1578063a0712d681161008a578063c87b56dd11610064578063c87b56dd14610539578063d5abeb0114610576578063e985e9c5146105a1578063f2fde38b146105de57610181565b8063a0712d68146104cb578063a22cb465146104e7578063b88d4fde1461051057610181565b80636352211e146103b95780636c0360eb146103f657806370a0823114610421578063715018a61461045e5780638da5cb5b1461047557806395d89b41146104a057610181565b806318160ddd1161013e57806342842e0e1161011857806342842e0e1461031357806344a0d68a1461033c57806355f804b3146103655780635c975abb1461038e57610181565b806318160ddd146102a857806323b872dd146102d35780633ccfd60b146102fc57610181565b806301ffc9a71461018657806306fdde03146101c3578063081812fc146101ee578063095ea7b31461022b57806313faede61461025457806316c38b3c1461027f575b600080fd5b34801561019257600080fd5b506101ad60048036038101906101a891906125c1565b610607565b6040516101ba9190612609565b60405180910390f35b3480156101cf57600080fd5b506101d86106e9565b6040516101e591906126bd565b60405180910390f35b3480156101fa57600080fd5b5061021560048036038101906102109190612715565b61077b565b6040516102229190612783565b60405180910390f35b34801561023757600080fd5b50610252600480360381019061024d91906127ca565b6107f7565b005b34801561026057600080fd5b50610269610902565b6040516102769190612819565b60405180910390f35b34801561028b57600080fd5b506102a660048036038101906102a19190612860565b610908565b005b3480156102b457600080fd5b506102bd6109a1565b6040516102ca9190612819565b60405180910390f35b3480156102df57600080fd5b506102fa60048036038101906102f5919061288d565b6109af565b005b34801561030857600080fd5b506103116109bf565b005b34801561031f57600080fd5b5061033a6004803603810190610335919061288d565b610a75565b005b34801561034857600080fd5b50610363600480360381019061035e9190612715565b610a95565b005b34801561037157600080fd5b5061038c60048036038101906103879190612a15565b610b1b565b005b34801561039a57600080fd5b506103a3610bb1565b6040516103b09190612609565b60405180910390f35b3480156103c557600080fd5b506103e060048036038101906103db9190612715565b610bc4565b6040516103ed9190612783565b60405180910390f35b34801561040257600080fd5b5061040b610bda565b60405161041891906126bd565b60405180910390f35b34801561042d57600080fd5b5061044860048036038101906104439190612a5e565b610c68565b6040516104559190612819565b60405180910390f35b34801561046a57600080fd5b50610473610d38565b005b34801561048157600080fd5b5061048a610dc0565b6040516104979190612783565b60405180910390f35b3480156104ac57600080fd5b506104b5610dea565b6040516104c291906126bd565b60405180910390f35b6104e560048036038101906104e09190612715565b610e7c565b005b3480156104f357600080fd5b5061050e60048036038101906105099190612a8b565b610ff3565b005b34801561051c57600080fd5b5061053760048036038101906105329190612b6c565b61116b565b005b34801561054557600080fd5b50610560600480360381019061055b9190612715565b6111be565b60405161056d91906126bd565b60405180910390f35b34801561058257600080fd5b5061058b611265565b6040516105989190612819565b60405180910390f35b3480156105ad57600080fd5b506105c860048036038101906105c39190612bef565b61126b565b6040516105d59190612609565b60405180910390f35b3480156105ea57600080fd5b5061060560048036038101906106009190612a5e565b6112ff565b005b60007f80ac58cd000000000000000000000000000000000000000000000000000000007bffffffffffffffffffffffffffffffffffffffffffffffffffffffff1916827bffffffffffffffffffffffffffffffffffffffffffffffffffffffff191614806106d257507f5b5e139f000000000000000000000000000000000000000000000000000000007bffffffffffffffffffffffffffffffffffffffffffffffffffffffff1916827bffffffffffffffffffffffffffffffffffffffffffffffffffffffff1916145b806106e257506106e1826113f7565b5b9050919050565b6060600280546106f890612c5e565b80601f016020809104026020016040519081016040528092919081815260200182805461072490612c5e565b80156107715780601f1061074657610100808354040283529160200191610771565b820191906000526020600020905b81548152906001019060200180831161075457829003601f168201915b5050505050905090565b600061078682611461565b6107bc576040517fcf4700e400000000000000000000000000000000000000000000000000000000815260040160405180910390fd5b6006600083815260200190815260200160002060009054906101000a900473ffffffffffffffffffffffffffffffffffffffff169050919050565b600061080282610bc4565b90508073ffffffffffffffffffffffffffffffffffffffff168373ffffffffffffffffffffffffffffffffffffffff16141561086a576040517f943f7b8c00000000000000000000000000000000000000000000000000000000815260040160405180910390fd5b8073ffffffffffffffffffffffffffffffffffffffff1661088961149b565b73ffffffffffffffffffffffffffffffffffffffff16141580156108bb57506108b9816108b461149b565b61126b565b155b156108f2576040517fcfb3b94200000000000000000000000000000000000000000000000000000000815260040160405180910390fd5b6108fd8383836114a3565b505050565b600b5481565b61091061149b565b73ffffffffffffffffffffffffffffffffffffffff1661092e610dc0565b73ffffffffffffffffffffffffffffffffffffffff1614610984576040517f08c379a000000000000000000000000000000000000000000000000000000000815260040161097b90612cdc565b60405180910390fd5b80600c60006101000a81548160ff02191690831515021790555050565b600060015460005403905090565b6109ba838383611555565b505050565b60006109c9610dc0565b73ffffffffffffffffffffffffffffffffffffffff16476040516109ec90612d2d565b60006040518083038185875af1925050503d8060008114610a29576040519150601f19603f3d011682016040523d82523d6000602084013e610a2e565b606091505b5050905080610a72576040517f08c379a0000000000000000000000000000000000000000000000000000000008152600401610a6990612d8e565b60405180910390fd5b50565b610a908383836040518060200160405280600081525061116b565b505050565b610a9d61149b565b73ffffffffffffffffffffffffffffffffffffffff16610abb610dc0565b73ffffffffffffffffffffffffffffffffffffffff1614610b11576040517f08c379a0000000000000000000000000000000000000000000000000000000008152600401610b0890612cdc565b60405180910390fd5b80600b8190555050565b610b2361149b565b73ffffffffffffffffffffffffffffffffffffffff16610b41610dc0565b73ffffffffffffffffffffffffffffffffffffffff1614610b97576040517f08c379a0000000000000000000000000000000000000000000000000000000008152600401610b8e90612cdc565b60405180910390fd5b80600a9080519060200190610bad92919061246f565b5050565b600c60009054906101000a900460ff1681565b6000610bcf82611a46565b600001519050919050565b600a8054610be790612c5e565b80601f0160208091040260200160405190810160405280929190818152602001828054610c1390612c5e565b8015610c605780601f10610c3557610100808354040283529160200191610c60565b820191906000526020600020905b815481529060010190602001808311610c4357829003601f168201915b505050505081565b60008073ffffffffffffffffffffffffffffffffffffffff168273ffffffffffffffffffffffffffffffffffffffff161415610cd0576040517f8f4eb60400000000000000000000000000000000000000000000000000000000815260040160405180910390fd5b600560008373ffffffffffffffffffffffffffffffffffffffff1673ffffffffffffffffffffffffffffffffffffffff16815260200190815260200160002060000160009054906101000a900467ffffffffffffffff1667ffffffffffffffff169050919050565b610d4061149b565b73ffffffffffffffffffffffffffffffffffffffff16610d5e610dc0565b73ffffffffffffffffffffffffffffffffffffffff1614610db4576040517f08c379a0000000000000000000000000000000000000000000000000000000008152600401610dab90612cdc565b60405180910390fd5b610dbe6000611cc2565b565b6000600860009054906101000a900473ffffffffffffffffffffffffffffffffffffffff16905090565b606060038054610df990612c5e565b80601f0160208091040260200160405190810160405280929190818152602001828054610e2590612c5e565b8015610e725780601f10610e4757610100808354040283529160200191610e72565b820191906000526020600020905b815481529060010190602001808311610e5557829003601f168201915b5050505050905090565b60026009541415610ec2576040517f08c379a0000000000000000000000000000000000000000000000000000000008152600401610eb990612dfa565b60405180910390fd5b6002600981905550600c60009054906101000a900460ff1615610f1a576040517f08c379a0000000000000000000000000000000000000000000000000000000008152600401610f1190612e66565b60405180910390fd5b6001611e61610f299190612eb5565b81610f326109a1565b610f3c9190612eb5565b10610f7c576040517f08c379a0000000000000000000000000000000000000000000000000000000008152600401610f7390612f57565b60405180910390fd5b80600b54610f8a9190612f77565b341015610fcc576040517f08c379a0000000000000000000000000000000000000000000000000000000008152600401610fc39061301d565b60405180910390fd5b610fe83382604051806020016040528060008152506001611d88565b600160098190555050565b610ffb61149b565b73ffffffffffffffffffffffffffffffffffffffff168273ffffffffffffffffffffffffffffffffffffffff161415611060576040517fb06307db00000000000000000000000000000000000000000000000000000000815260040160405180910390fd5b806007600061106d61149b565b73ffffffffffffffffffffffffffffffffffffffff1673ffffffffffffffffffffffffffffffffffffffff16815260200190815260200160002060008473ffffffffffffffffffffffffffffffffffffffff1673ffffffffffffffffffffffffffffffffffffffff16815260200190815260200160002060006101000a81548160ff0219169083151502179055508173ffffffffffffffffffffffffffffffffffffffff1661111a61149b565b73ffffffffffffffffffffffffffffffffffffffff167f17307eab39ab6107e8899845ad3d59bd9653f200f220920489ca2b5937696c318360405161115f9190612609565b60405180910390a35050565b611176848484611555565b611182848484846120bf565b6111b8576040517fd1a57ed600000000000000000000000000000000000000000000000000000000815260040160405180910390fd5b50505050565b60606111c982611461565b611208576040517f08c379a00000000000000000000000000000000000000000000000000000000081526004016111ff906130af565b60405180910390fd5b600061121261224d565b90506000815111611232576040518060200160405280600081525061125d565b8061123c846122df565b60405160200161124d929190613157565b6040516020818303038152906040525b915050919050565b611e6181565b6000600760008473ffffffffffffffffffffffffffffffffffffffff1673ffffffffffffffffffffffffffffffffffffffff16815260200190815260200160002060008373ffffffffffffffffffffffffffffffffffffffff1673ffffffffffffffffffffffffffffffffffffffff16815260200190815260200160002060009054906101000a900460ff16905092915050565b61130761149b565b73ffffffffffffffffffffffffffffffffffffffff16611325610dc0565b73ffffffffffffffffffffffffffffffffffffffff161461137b576040517f08c379a000000000000000000000000000000000000000000000000000000000815260040161137290612cdc565b60405180910390fd5b600073ffffffffffffffffffffffffffffffffffffffff168173ffffffffffffffffffffffffffffffffffffffff1614156113eb576040517f08c379a00000000000000000000000000000000000000000000000000000000081526004016113e2906131f8565b60405180910390fd5b6113f481611cc2565b50565b60007f01ffc9a7000000000000000000000000000000000000000000000000000000007bffffffffffffffffffffffffffffffffffffffffffffffffffffffff1916827bffffffffffffffffffffffffffffffffffffffffffffffffffffffff1916149050919050565b6000805482108015611494575060046000838152602001908152602001600020600001601c9054906101000a900460ff16155b9050919050565b600033905090565b826006600084815260200190815260200160002060006101000a81548173ffffffffffffffffffffffffffffffffffffffff021916908373ffffffffffffffffffffffffffffffffffffffff160217905550818373ffffffffffffffffffffffffffffffffffffffff168273ffffffffffffffffffffffffffffffffffffffff167f8c5be1e5ebec7d5bd14f71427d1e84f3dd0314c0f7b2291e5b200ac8c7c3b92560405160405180910390a4505050565b600061156082611a46565b90506000816000015173ffffffffffffffffffffffffffffffffffffffff1661158761149b565b73ffffffffffffffffffffffffffffffffffffffff1614806115ba57506115b982600001516115b461149b565b61126b565b5b806115ff57506115c861149b565b73ffffffffffffffffffffffffffffffffffffffff166115e78461077b565b73ffffffffffffffffffffffffffffffffffffffff16145b905080611638576040517f59c896be00000000000000000000000000000000000000000000000000000000815260040160405180910390fd5b8473ffffffffffffffffffffffffffffffffffffffff16826000015173ffffffffffffffffffffffffffffffffffffffff16146116a1576040517fa114810000000000000000000000000000000000000000000000000000000000815260040160405180910390fd5b600073ffffffffffffffffffffffffffffffffffffffff168473ffffffffffffffffffffffffffffffffffffffff161415611708576040517fea553b3400000000000000000000000000000000000000000000000000000000815260040160405180910390fd5b6117158585856001612440565b61172560008484600001516114a3565b6001600560008773ffffffffffffffffffffffffffffffffffffffff1673ffffffffffffffffffffffffffffffffffffffff16815260200190815260200160002060000160008282829054906101000a900467ffffffffffffffff160392506101000a81548167ffffffffffffffff021916908367ffffffffffffffff1602179055506001600560008673ffffffffffffffffffffffffffffffffffffffff1673ffffffffffffffffffffffffffffffffffffffff16815260200190815260200160002060000160008282829054906101000a900467ffffffffffffffff160192506101000a81548167ffffffffffffffff021916908367ffffffffffffffff160217905550836004600085815260200190815260200160002060000160006101000a81548173ffffffffffffffffffffffffffffffffffffffff021916908373ffffffffffffffffffffffffffffffffffffffff160217905550426004600085815260200190815260200160002060000160146101000a81548167ffffffffffffffff021916908367ffffffffffffffff1602179055506000600184019050600073ffffffffffffffffffffffffffffffffffffffff166004600083815260200190815260200160002060000160009054906101000a900473ffffffffffffffffffffffffffffffffffffffff1673ffffffffffffffffffffffffffffffffffffffff1614156119d6576000548110156119d55782600001516004600083815260200190815260200160002060000160006101000a81548173ffffffffffffffffffffffffffffffffffffffff021916908373ffffffffffffffffffffffffffffffffffffffff16021790555082602001516004600083815260200190815260200160002060000160146101000a81548167ffffffffffffffff021916908367ffffffffffffffff1602179055505b5b50828473ffffffffffffffffffffffffffffffffffffffff168673ffffffffffffffffffffffffffffffffffffffff167fddf252ad1be2c89b69c2b068fc378daa952ba7f163c4a11628f55a4df523b3ef60405160405180910390a4611a3f8585856001612446565b5050505050565b611a4e6124f5565b6000829050600054811015611c8b576000600460008381526020019081526020016000206040518060600160405290816000820160009054906101000a900473ffffffffffffffffffffffffffffffffffffffff1673ffffffffffffffffffffffffffffffffffffffff1673ffffffffffffffffffffffffffffffffffffffff1681526020016000820160149054906101000a900467ffffffffffffffff1667ffffffffffffffff1667ffffffffffffffff16815260200160008201601c9054906101000a900460ff16151515158152505090508060400151611c8957600073ffffffffffffffffffffffffffffffffffffffff16816000015173ffffffffffffffffffffffffffffffffffffffff1614611b6d578092505050611cbd565b5b600115611c8857818060019003925050600460008381526020019081526020016000206040518060600160405290816000820160009054906101000a900473ffffffffffffffffffffffffffffffffffffffff1673ffffffffffffffffffffffffffffffffffffffff1673ffffffffffffffffffffffffffffffffffffffff1681526020016000820160149054906101000a900467ffffffffffffffff1667ffffffffffffffff1667ffffffffffffffff16815260200160008201601c9054906101000a900460ff1615151515815250509050600073ffffffffffffffffffffffffffffffffffffffff16816000015173ffffffffffffffffffffffffffffffffffffffff1614611c83578092505050611cbd565b611b6e565b5b505b6040517fdf2d9b4200000000000000000000000000000000000000000000000000000000815260040160405180910390fd5b919050565b6000600860009054906101000a900473ffffffffffffffffffffffffffffffffffffffff16905081600860006101000a81548173ffffffffffffffffffffffffffffffffffffffff021916908373ffffffffffffffffffffffffffffffffffffffff1602179055508173ffffffffffffffffffffffffffffffffffffffff168173ffffffffffffffffffffffffffffffffffffffff167f8be0079c531659141344cd1fd0a4f28419497f9722a3daafe3b4186f6b6457e060405160405180910390a35050565b600080549050600073ffffffffffffffffffffffffffffffffffffffff168573ffffffffffffffffffffffffffffffffffffffff161415611df5576040517f2e07630000000000000000000000000000000000000000000000000000000000815260040160405180910390fd5b6000841415611e30576040517fb562e8dd00000000000000000000000000000000000000000000000000000000815260040160405180910390fd5b611e3d6000868387612440565b83600560008773ffffffffffffffffffffffffffffffffffffffff1673ffffffffffffffffffffffffffffffffffffffff16815260200190815260200160002060000160008282829054906101000a900467ffffffffffffffff160192506101000a81548167ffffffffffffffff021916908367ffffffffffffffff16021790555083600560008773ffffffffffffffffffffffffffffffffffffffff1673ffffffffffffffffffffffffffffffffffffffff16815260200190815260200160002060000160088282829054906101000a900467ffffffffffffffff160192506101000a81548167ffffffffffffffff021916908367ffffffffffffffff160217905550846004600083815260200190815260200160002060000160006101000a81548173ffffffffffffffffffffffffffffffffffffffff021916908373ffffffffffffffffffffffffffffffffffffffff160217905550426004600083815260200190815260200160002060000160146101000a81548167ffffffffffffffff021916908367ffffffffffffffff160217905550600081905060005b858110156120a257818773ffffffffffffffffffffffffffffffffffffffff16600073ffffffffffffffffffffffffffffffffffffffff167fddf252ad1be2c89b69c2b068fc378daa952ba7f163c4a11628f55a4df523b3ef60405160405180910390a4838015612056575061205460008884886120bf565b155b1561208d576040517fd1a57ed600000000000000000000000000000000000000000000000000000000815260040160405180910390fd5b81806001019250508080600101915050611fdb565b5080600081905550506120b86000868387612446565b5050505050565b60006120e08473ffffffffffffffffffffffffffffffffffffffff1661244c565b15612240578373ffffffffffffffffffffffffffffffffffffffff1663150b7a0261210961149b565b8786866040518563ffffffff1660e01b815260040161212b949392919061326d565b602060405180830381600087803b15801561214557600080fd5b505af192505050801561217657506040513d601f19601f8201168201806040525081019061217391906132ce565b60015b6121f0573d80600081146121a6576040519150601f19603f3d011682016040523d82523d6000602084013e6121ab565b606091505b506000815114156121e8576040517fd1a57ed600000000000000000000000000000000000000000000000000000000815260040160405180910390fd5b805181602001fd5b63150b7a0260e01b7bffffffffffffffffffffffffffffffffffffffffffffffffffffffff1916817bffffffffffffffffffffffffffffffffffffffffffffffffffffffff191614915050612245565b600190505b949350505050565b6060600a805461225c90612c5e565b80601f016020809104026020016040519081016040528092919081815260200182805461228890612c5e565b80156122d55780601f106122aa576101008083540402835291602001916122d5565b820191906000526020600020905b8154815290600101906020018083116122b857829003601f168201915b5050505050905090565b60606000821415612327576040518060400160405280600181526020017f3000000000000000000000000000000000000000000000000000000000000000815250905061243b565b600082905060005b60008214612359578080612342906132fb565b915050600a826123529190613373565b915061232f565b60008167ffffffffffffffff811115612375576123746128ea565b5b6040519080825280601f01601f1916602001820160405280156123a75781602001600182028036833780820191505090505b5090505b60008514612434576001826123c091906133a4565b9150600a856123cf91906133d8565b60306123db9190612eb5565b60f81b8183815181106123f1576123f0613409565b5b60200101907effffffffffffffffffffffffffffffffffffffffffffffffffffffffffffff1916908160001a905350600a8561242d9190613373565b94506123ab565b8093505050505b919050565b50505050565b50505050565b6000808273ffffffffffffffffffffffffffffffffffffffff163b119050919050565b82805461247b90612c5e565b90600052602060002090601f01602090048101928261249d57600085556124e4565b82601f106124b657805160ff19168380011785556124e4565b828001600101855582156124e4579182015b828111156124e35782518255916020019190600101906124c8565b5b5090506124f19190612538565b5090565b6040518060600160405280600073ffffffffffffffffffffffffffffffffffffffff168152602001600067ffffffffffffffff1681526020016000151581525090565b5b80821115612551576000816000905550600101612539565b5090565b6000604051905090565b600080fd5b600080fd5b60007fffffffff0000000000000000000000000000000000000000000000000000000082169050919050565b61259e81612569565b81146125a957600080fd5b50565b6000813590506125bb81612595565b92915050565b6000602082840312156125d7576125d661255f565b5b60006125e5848285016125ac565b91505092915050565b60008115159050919050565b612603816125ee565b82525050565b600060208201905061261e60008301846125fa565b92915050565b600081519050919050565b600082825260208201905092915050565b60005b8381101561265e578082015181840152602081019050612643565b8381111561266d576000848401525b50505050565b6000601f19601f8301169050919050565b600061268f82612624565b612699818561262f565b93506126a9818560208601612640565b6126b281612673565b840191505092915050565b600060208201905081810360008301526126d78184612684565b905092915050565b6000819050919050565b6126f2816126df565b81146126fd57600080fd5b50565b60008135905061270f816126e9565b92915050565b60006020828403121561272b5761272a61255f565b5b600061273984828501612700565b91505092915050565b600073ffffffffffffffffffffffffffffffffffffffff82169050919050565b600061276d82612742565b9050919050565b61277d81612762565b82525050565b60006020820190506127986000830184612774565b92915050565b6127a781612762565b81146127b257600080fd5b50565b6000813590506127c48161279e565b92915050565b600080604083850312156127e1576127e061255f565b5b60006127ef858286016127b5565b925050602061280085828601612700565b9150509250929050565b612813816126df565b82525050565b600060208201905061282e600083018461280a565b92915050565b61283d816125ee565b811461284857600080fd5b50565b60008135905061285a81612834565b92915050565b6000602082840312156128765761287561255f565b5b60006128848482850161284b565b91505092915050565b6000806000606084860312156128a6576128a561255f565b5b60006128b4868287016127b5565b93505060206128c5868287016127b5565b92505060406128d686828701612700565b9150509250925092565b600080fd5b600080fd5b7f4e487b7100000000000000000000000000000000000000000000000000000000600052604160045260246000fd5b61292282612673565b810181811067ffffffffffffffff82111715612941576129406128ea565b5b80604052505050565b6000612954612555565b90506129608282612919565b919050565b600067ffffffffffffffff8211156129805761297f6128ea565b5b61298982612673565b9050602081019050919050565b82818337600083830152505050565b60006129b86129b384612965565b61294a565b9050828152602081018484840111156129d4576129d36128e5565b5b6129df848285612996565b509392505050565b600082601f8301126129fc576129fb6128e0565b5b8135612a0c8482602086016129a5565b91505092915050565b600060208284031215612a2b57612a2a61255f565b5b600082013567ffffffffffffffff811115612a4957612a48612564565b5b612a55848285016129e7565b91505092915050565b600060208284031215612a7457612a7361255f565b5b6000612a82848285016127b5565b91505092915050565b60008060408385031215612aa257612aa161255f565b5b6000612ab0858286016127b5565b9250506020612ac18582860161284b565b9150509250929050565b600067ffffffffffffffff821115612ae657612ae56128ea565b5b612aef82612673565b9050602081019050919050565b6000612b0f612b0a84612acb565b61294a565b905082815260208101848484011115612b2b57612b2a6128e5565b5b612b36848285612996565b509392505050565b600082601f830112612b5357612b526128e0565b5b8135612b63848260208601612afc565b91505092915050565b60008060008060808587031215612b8657612b8561255f565b5b6000612b94878288016127b5565b9450506020612ba5878288016127b5565b9350506040612bb687828801612700565b925050606085013567ffffffffffffffff811115612bd757612bd6612564565b5b612be387828801612b3e565b91505092959194509250565b60008060408385031215612c0657612c0561255f565b5b6000612c14858286016127b5565b9250506020612c25858286016127b5565b9150509250929050565b7f4e487b7100000000000000000000000000000000000000000000000000000000600052602260045260246000fd5b60006002820490506001821680612c7657607f821691505b60208210811415612c8a57612c89612c2f565b5b50919050565b7f4f776e61626c653a2063616c6c6572206973206e6f7420746865206f776e6572600082015250565b6000612cc660208361262f565b9150612cd182612c90565b602082019050919050565b60006020820190508181036000830152612cf581612cb9565b9050919050565b600081905092915050565b50565b6000612d17600083612cfc565b9150612d2282612d07565b600082019050919050565b6000612d3882612d0a565b9150819050919050565b7f5769746864726177206661696c65642100000000000000000000000000000000600082015250565b6000612d7860108361262f565b9150612d8382612d42565b602082019050919050565b60006020820190508181036000830152612da781612d6b565b9050919050565b7f5265656e7472616e637947756172643a207265656e7472616e742063616c6c00600082015250565b6000612de4601f8361262f565b9150612def82612dae565b602082019050919050565b60006020820190508181036000830152612e1381612dd7565b9050919050565b7f436f6e7472616374206973207061757365642100000000000000000000000000600082015250565b6000612e5060138361262f565b9150612e5b82612e1a565b602082019050919050565b60006020820190508181036000830152612e7f81612e43565b9050919050565b7f4e487b7100000000000000000000000000000000000000000000000000000000600052601160045260246000fd5b6000612ec0826126df565b9150612ecb836126df565b9250827fffffffffffffffffffffffffffffffffffffffffffffffffffffffffffffffff03821115612f0057612eff612e86565b5b828201905092915050565b7f4d617820737570706c7920657863656564656421000000000000000000000000600082015250565b6000612f4160148361262f565b9150612f4c82612f0b565b602082019050919050565b60006020820190508181036000830152612f7081612f34565b9050919050565b6000612f82826126df565b9150612f8d836126df565b9250817fffffffffffffffffffffffffffffffffffffffffffffffffffffffffffffffff0483118215151615612fc657612fc5612e86565b5b828202905092915050565b7f496e73756666696369656e742066756e64732100000000000000000000000000600082015250565b600061300760138361262f565b915061301282612fd1565b602082019050919050565b6000602082019050818103600083015261303681612ffa565b9050919050565b7f4552433732314d657461646174613a2055524920717565727920666f72206e6f60008201527f6e6578697374656e7420746f6b656e0000000000000000000000000000000000602082015250565b6000613099602f8361262f565b91506130a48261303d565b604082019050919050565b600060208201905081810360008301526130c88161308c565b9050919050565b600081905092915050565b60006130e582612624565b6130ef81856130cf565b93506130ff818560208601612640565b80840191505092915050565b7f2e6a736f6e000000000000000000000000000000000000000000000000000000600082015250565b60006131416005836130cf565b915061314c8261310b565b600582019050919050565b600061316382856130da565b915061316f82846130da565b915061317a82613134565b91508190509392505050565b7f4f776e61626c653a206e6577206f776e657220697320746865207a65726f206160008201527f6464726573730000000000000000000000000000000000000000000000000000602082015250565b60006131e260268361262f565b91506131ed82613186565b604082019050919050565b60006020820190508181036000830152613211816131d5565b9050919050565b600081519050919050565b600082825260208201905092915050565b600061323f82613218565b6132498185613223565b9350613259818560208601612640565b61326281612673565b840191505092915050565b60006080820190506132826000830187612774565b61328f6020830186612774565b61329c604083018561280a565b81810360608301526132ae8184613234565b905095945050505050565b6000815190506132c881612595565b92915050565b6000602082840312156132e4576132e361255f565b5b60006132f2848285016132b9565b91505092915050565b6000613306826126df565b91507fffffffffffffffffffffffffffffffffffffffffffffffffffffffffffffffff82141561333957613338612e86565b5b600182019050919050565b7f4e487b7100000000000000000000000000000000000000000000000000000000600052601260045260246000fd5b600061337e826126df565b9150613389836126df565b92508261339957613398613344565b5b828204905092915050565b60006133af826126df565b91506133ba836126df565b9250828210156133cd576133cc612e86565b5b828203905092915050565b60006133e3826126df565b91506133ee836126df565b9250826133fe576133fd613344565b5b828206905092915050565b7f4e487b7100000000000000000000000000000000000000000000000000000000600052603260045260246000fdfea2646970667358221220da06476321e3aa488ae099a453e7783c3deee2f14c3687fd223718d6329361ce64736f6c63430008090033",
  "linkReferences": {},
  "deployedLinkReferences": {}
}